{
  "contracts/ICO.sol": {
    "ChainSphereTokenICO": {
      "abi": [
        {
          "inputs": [
            {
              "internalType": "address",
              "name": "usdt_",
              "type": "address"
            }
          ],
          "stateMutability": "nonpayable",
          "type": "constructor"
        },
        {
          "inputs": [
            {
              "internalType": "address",
              "name": "spender",
              "type": "address"
            },
            {
              "internalType": "uint256",
              "name": "allowance",
              "type": "uint256"
            },
            {
              "internalType": "uint256",
              "name": "needed",
              "type": "uint256"
            }
          ],
          "name": "ERC20InsufficientAllowance",
          "type": "error"
        },
        {
          "inputs": [
            {
              "internalType": "address",
              "name": "sender",
              "type": "address"
            },
            {
              "internalType": "uint256",
              "name": "balance",
              "type": "uint256"
            },
            {
              "internalType": "uint256",
              "name": "needed",
              "type": "uint256"
            }
          ],
          "name": "ERC20InsufficientBalance",
          "type": "error"
        },
        {
          "inputs": [
            {
              "internalType": "address",
              "name": "approver",
              "type": "address"
            }
          ],
          "name": "ERC20InvalidApprover",
          "type": "error"
        },
        {
          "inputs": [
            {
              "internalType": "address",
              "name": "receiver",
              "type": "address"
            }
          ],
          "name": "ERC20InvalidReceiver",
          "type": "error"
        },
        {
          "inputs": [
            {
              "internalType": "address",
              "name": "sender",
              "type": "address"
            }
          ],
          "name": "ERC20InvalidSender",
          "type": "error"
        },
        {
          "inputs": [
            {
              "internalType": "address",
              "name": "spender",
              "type": "address"
            }
          ],
          "name": "ERC20InvalidSpender",
          "type": "error"
        },
        {
          "inputs": [
            {
              "internalType": "address",
              "name": "owner",
              "type": "address"
            }
          ],
          "name": "OwnableInvalidOwner",
          "type": "error"
        },
        {
          "inputs": [
            {
              "internalType": "address",
              "name": "account",
              "type": "address"
            }
          ],
          "name": "OwnableUnauthorizedAccount",
          "type": "error"
        },
        {
          "inputs": [],
          "name": "ReentrancyGuardReentrantCall",
          "type": "error"
        },
        {
          "anonymous": false,
          "inputs": [
            {
              "indexed": true,
              "internalType": "address",
              "name": "owner",
              "type": "address"
            },
            {
              "indexed": true,
              "internalType": "address",
              "name": "spender",
              "type": "address"
            },
            {
              "indexed": false,
              "internalType": "uint256",
              "name": "value",
              "type": "uint256"
            }
          ],
          "name": "Approval",
          "type": "event"
        },
        {
          "anonymous": false,
          "inputs": [
            {
              "indexed": true,
              "internalType": "address",
              "name": "previousOwner",
              "type": "address"
            },
            {
              "indexed": true,
              "internalType": "address",
              "name": "newOwner",
              "type": "address"
            }
          ],
          "name": "OwnershipTransferred",
          "type": "event"
        },
        {
          "anonymous": false,
          "inputs": [
            {
              "indexed": true,
              "internalType": "address",
              "name": "buyer",
              "type": "address"
            },
            {
              "indexed": false,
              "internalType": "uint256",
              "name": "usdtAmount",
              "type": "uint256"
            },
            {
              "indexed": false,
              "internalType": "uint256",
              "name": "tokenAmount",
              "type": "uint256"
            },
            {
              "indexed": false,
              "internalType": "uint256",
              "name": "unlockTime",
              "type": "uint256"
            }
          ],
          "name": "TokenBought",
          "type": "event"
        },
        {
          "anonymous": false,
          "inputs": [
            {
              "indexed": true,
              "internalType": "address",
              "name": "buyer",
              "type": "address"
            },
            {
              "indexed": false,
              "internalType": "uint256",
              "name": "amount",
              "type": "uint256"
            }
          ],
          "name": "TokensClaimed",
          "type": "event"
        },
        {
          "anonymous": false,
          "inputs": [
            {
              "indexed": true,
              "internalType": "address",
              "name": "from",
              "type": "address"
            },
            {
              "indexed": true,
              "internalType": "address",
              "name": "to",
              "type": "address"
            },
            {
              "indexed": false,
              "internalType": "uint256",
              "name": "value",
              "type": "uint256"
            }
          ],
          "name": "Transfer",
          "type": "event"
        },
        {
          "inputs": [],
          "name": "Pause",
          "outputs": [],
          "stateMutability": "nonpayable",
          "type": "function"
        },
        {
          "inputs": [
            {
              "internalType": "address",
              "name": "owner",
              "type": "address"
            },
            {
              "internalType": "address",
              "name": "spender",
              "type": "address"
            }
          ],
          "name": "allowance",
          "outputs": [
            {
              "internalType": "uint256",
              "name": "",
              "type": "uint256"
            }
          ],
          "stateMutability": "view",
          "type": "function"
        },
        {
          "inputs": [
            {
              "internalType": "address",
              "name": "spender",
              "type": "address"
            },
            {
              "internalType": "uint256",
              "name": "value",
              "type": "uint256"
            }
          ],
          "name": "approve",
          "outputs": [
            {
              "internalType": "bool",
              "name": "",
              "type": "bool"
            }
          ],
          "stateMutability": "nonpayable",
          "type": "function"
        },
        {
          "inputs": [
            {
              "internalType": "address",
              "name": "account",
              "type": "address"
            }
          ],
          "name": "availableBalance",
          "outputs": [
            {
              "internalType": "uint256",
              "name": "",
              "type": "uint256"
            }
          ],
          "stateMutability": "view",
          "type": "function"
        },
        {
          "inputs": [
            {
              "internalType": "address",
              "name": "account",
              "type": "address"
            }
          ],
          "name": "balanceOf",
          "outputs": [
            {
              "internalType": "uint256",
              "name": "",
              "type": "uint256"
            }
          ],
          "stateMutability": "view",
          "type": "function"
        },
        {
          "inputs": [
            {
              "internalType": "uint256",
              "name": "value",
              "type": "uint256"
            }
          ],
          "name": "burn",
          "outputs": [],
          "stateMutability": "nonpayable",
          "type": "function"
        },
        {
          "inputs": [
            {
              "internalType": "address",
              "name": "account",
              "type": "address"
            },
            {
              "internalType": "uint256",
              "name": "value",
              "type": "uint256"
            }
          ],
          "name": "burnFrom",
          "outputs": [],
          "stateMutability": "nonpayable",
          "type": "function"
        },
        {
          "inputs": [
            {
              "internalType": "uint256",
              "name": "usdtAmount",
              "type": "uint256"
            }
          ],
          "name": "buyToken",
          "outputs": [],
          "stateMutability": "payable",
          "type": "function"
        },
        {
          "inputs": [],
          "name": "checkStatus",
          "outputs": [
            {
              "internalType": "string",
              "name": "",
              "type": "string"
            }
          ],
          "stateMutability": "view",
          "type": "function"
        },
        {
          "inputs": [],
          "name": "claimTokens",
          "outputs": [],
          "stateMutability": "nonpayable",
          "type": "function"
        },
        {
          "inputs": [],
          "name": "claimVestedTokens",
          "outputs": [],
          "stateMutability": "nonpayable",
          "type": "function"
        },
        {
          "inputs": [],
          "name": "decimals",
          "outputs": [
            {
              "internalType": "uint8",
              "name": "",
              "type": "uint8"
            }
          ],
          "stateMutability": "view",
          "type": "function"
        },
        {
          "inputs": [
            {
              "internalType": "address",
              "name": "user",
              "type": "address"
            }
          ],
          "name": "getLockedTokens",
          "outputs": [
            {
              "internalType": "uint256",
              "name": "",
              "type": "uint256"
            }
          ],
          "stateMutability": "view",
          "type": "function"
        },
        {
          "inputs": [
            {
              "internalType": "address",
              "name": "user",
              "type": "address"
            }
          ],
          "name": "getUnlockedTokens",
          "outputs": [
            {
              "internalType": "uint256",
              "name": "",
              "type": "uint256"
            }
          ],
          "stateMutability": "view",
          "type": "function"
        },
        {
          "inputs": [],
          "name": "icoEnd",
          "outputs": [
            {
              "internalType": "uint256",
              "name": "",
              "type": "uint256"
            }
          ],
          "stateMutability": "view",
          "type": "function"
        },
        {
          "inputs": [],
          "name": "icoStart",
          "outputs": [
            {
              "internalType": "uint256",
              "name": "",
              "type": "uint256"
            }
          ],
          "stateMutability": "view",
          "type": "function"
        },
        {
          "inputs": [],
          "name": "lockDuration",
          "outputs": [
            {
              "internalType": "uint256",
              "name": "",
              "type": "uint256"
            }
          ],
          "stateMutability": "view",
          "type": "function"
        },
        {
          "inputs": [
            {
              "internalType": "address",
              "name": "",
              "type": "address"
            },
            {
              "internalType": "uint256",
              "name": "",
              "type": "uint256"
            }
          ],
          "name": "lockingBalances",
          "outputs": [
            {
              "internalType": "uint256",
              "name": "amount",
              "type": "uint256"
            },
            {
              "internalType": "uint256",
              "name": "purchaseTime",
              "type": "uint256"
            },
            {
              "internalType": "enum ChainSphereTokenICO.SalePhase",
              "name": "phase",
              "type": "uint8"
            },
            {
              "internalType": "uint256",
              "name": "unlockTime",
              "type": "uint256"
            }
          ],
          "stateMutability": "view",
          "type": "function"
        },
        {
          "inputs": [],
          "name": "manualPause",
          "outputs": [
            {
              "internalType": "bool",
              "name": "",
              "type": "bool"
            }
          ],
          "stateMutability": "view",
          "type": "function"
        },
        {
          "inputs": [],
          "name": "name",
          "outputs": [
            {
              "internalType": "string",
              "name": "",
              "type": "string"
            }
          ],
          "stateMutability": "view",
          "type": "function"
        },
        {
          "inputs": [],
          "name": "owner",
          "outputs": [
            {
              "internalType": "address",
              "name": "",
              "type": "address"
            }
          ],
          "stateMutability": "view",
          "type": "function"
        },
        {
          "inputs": [
            {
              "internalType": "enum ChainSphereTokenICO.SalePhase",
              "name": "",
              "type": "uint8"
            },
            {
              "internalType": "uint256",
              "name": "",
              "type": "uint256"
            }
          ],
          "name": "phaseBuyers",
          "outputs": [
            {
              "internalType": "address",
              "name": "",
              "type": "address"
            }
          ],
          "stateMutability": "view",
          "type": "function"
        },
        {
          "inputs": [],
          "name": "renounceOwnership",
          "outputs": [],
          "stateMutability": "nonpayable",
          "type": "function"
        },
        {
          "inputs": [],
          "name": "salePhase",
          "outputs": [
            {
              "internalType": "enum ChainSphereTokenICO.SalePhase",
              "name": "",
              "type": "uint8"
            }
          ],
          "stateMutability": "view",
          "type": "function"
        },
        {
          "inputs": [
            {
              "internalType": "enum ChainSphereTokenICO.SalePhase",
              "name": "",
              "type": "uint8"
            }
          ],
          "name": "salePhases",
          "outputs": [
            {
              "internalType": "uint256",
              "name": "allocatedSupply",
              "type": "uint256"
            },
            {
              "internalType": "uint256",
              "name": "price",
              "type": "uint256"
            },
            {
              "internalType": "uint256",
              "name": "lockingPeriod",
              "type": "uint256"
            }
          ],
          "stateMutability": "view",
          "type": "function"
        },
        {
          "inputs": [
            {
              "internalType": "uint256",
              "name": "endTime_",
              "type": "uint256"
            }
          ],
          "name": "setEndTime",
          "outputs": [],
          "stateMutability": "nonpayable",
          "type": "function"
        },
        {
          "inputs": [
            {
              "internalType": "enum ChainSphereTokenICO.SalePhase",
              "name": "phase",
              "type": "uint8"
            },
            {
              "internalType": "uint256",
              "name": "period",
              "type": "uint256"
            }
          ],
          "name": "setLockingPeriod",
          "outputs": [],
          "stateMutability": "nonpayable",
          "type": "function"
        },
        {
          "inputs": [
            {
              "internalType": "enum ChainSphereTokenICO.SalePhase",
              "name": "phase",
              "type": "uint8"
            }
          ],
          "name": "setSalePhase",
          "outputs": [],
          "stateMutability": "nonpayable",
          "type": "function"
        },
        {
          "inputs": [
            {
              "internalType": "uint256",
              "name": "startTime_",
              "type": "uint256"
            }
          ],
          "name": "setStartTime",
          "outputs": [],
          "stateMutability": "nonpayable",
          "type": "function"
        },
        {
          "inputs": [],
          "name": "soldTokens",
          "outputs": [
            {
              "internalType": "uint256",
              "name": "",
              "type": "uint256"
            }
          ],
          "stateMutability": "view",
          "type": "function"
        },
        {
          "inputs": [],
          "name": "symbol",
          "outputs": [
            {
              "internalType": "string",
              "name": "",
              "type": "string"
            }
          ],
          "stateMutability": "view",
          "type": "function"
        },
        {
          "inputs": [],
          "name": "tokenPrice",
          "outputs": [
            {
              "internalType": "uint256",
              "name": "",
              "type": "uint256"
            }
          ],
          "stateMutability": "view",
          "type": "function"
        },
        {
          "inputs": [],
          "name": "totalSupply",
          "outputs": [
            {
              "internalType": "uint256",
              "name": "",
              "type": "uint256"
            }
          ],
          "stateMutability": "view",
          "type": "function"
        },
        {
          "inputs": [
            {
              "internalType": "address",
              "name": "recipient",
              "type": "address"
            },
            {
              "internalType": "uint256",
              "name": "amount",
              "type": "uint256"
            }
          ],
          "name": "transfer",
          "outputs": [
            {
              "internalType": "bool",
              "name": "",
              "type": "bool"
            }
          ],
          "stateMutability": "nonpayable",
          "type": "function"
        },
        {
          "inputs": [
            {
              "internalType": "address",
              "name": "sender",
              "type": "address"
            },
            {
              "internalType": "address",
              "name": "recipient",
              "type": "address"
            },
            {
              "internalType": "uint256",
              "name": "amount",
              "type": "uint256"
            }
          ],
          "name": "transferFrom",
          "outputs": [
            {
              "internalType": "bool",
              "name": "",
              "type": "bool"
            }
          ],
          "stateMutability": "nonpayable",
          "type": "function"
        },
        {
          "inputs": [
            {
              "internalType": "address",
              "name": "newOwner",
              "type": "address"
            }
          ],
          "name": "transferOwnership",
          "outputs": [],
          "stateMutability": "nonpayable",
          "type": "function"
        },
        {
          "inputs": [
            {
              "internalType": "address",
              "name": "recipient",
              "type": "address"
            },
            {
              "internalType": "uint256",
              "name": "amount",
              "type": "uint256"
            }
          ],
          "name": "transferWithLock",
          "outputs": [],
          "stateMutability": "nonpayable",
          "type": "function"
        },
        {
          "inputs": [],
          "name": "usdt",
          "outputs": [
            {
              "internalType": "contract IERC20",
              "name": "",
              "type": "address"
            }
          ],
          "stateMutability": "view",
          "type": "function"
        },
        {
          "inputs": [],
          "name": "vestingInterval",
          "outputs": [
            {
              "internalType": "uint256",
              "name": "",
              "type": "uint256"
            }
          ],
          "stateMutability": "view",
          "type": "function"
        },
        {
          "inputs": [
            {
              "internalType": "address",
              "name": "",
              "type": "address"
            }
          ],
          "name": "vestingSchedules",
          "outputs": [
            {
              "internalType": "uint256",
              "name": "totalAmount",
              "type": "uint256"
            },
            {
              "internalType": "uint256",
              "name": "claimedAmount",
              "type": "uint256"
            },
            {
              "internalType": "uint256",
              "name": "lockEndTime",
              "type": "uint256"
            },
            {
              "internalType": "uint256",
              "name": "unlockPerBatch",
              "type": "uint256"
            }
          ],
          "stateMutability": "view",
          "type": "function"
        }
      ],
      "evm": {
        "bytecode": {
          "linkReferences": {},
          "object": "6080604052346106f0576125bd6020813803918261001c81610714565b9384928339810103126106f057516001600160a01b038116908190036106f0576100466040610714565b90601082526f21b430b4b729b83432b932aa37b5b2b760811b602083015261006e6040610714565b600381526204353560ec1b602082015282519091906001600160401b0381116105f957600354600181811c911680156106e6575b60208210146105d957601f8111610681575b506020601f821160011461061a578192939460009261060f575b50508160011b916000199060031b1c1916176003555b81516001600160401b0381116105f957600454600181811c911680156105ef575b60208210146105d957601f8111610574575b50602092601f821160011461050f5792819293600092610504575b50508160011b916000199060031b1c1916176004555b33156104ee5760058054336001600160a01b0319821681179092556001600160a01b03167f8be0079c531659141344cd1fd0a4f28419497f9722a3daafe3b4186f6b6457e0600080a360016006556078600d55603c600e5560018060a01b0319600754161760075560006002546b1128543ccb7ea8f17e00000081018091116104da576002555033600052600060205260406000206b1128543ccb7ea8f17e00000081540190556040516b1128543ccb7ea8f17e000000815260007fddf252ad1be2c89b69c2b068fc378daa952ba7f163c4a11628f55a4df523b3ef60203393a36102316106f5565b6b01b73b9fadf310e4f3000000815266b1a2bc2ec5000060208083019182526064604084019081526001600052601190915291517f17bc176d2408558f6e4111feebc3cab4e16b63e967be91cde721f4c8a488b55255517f17bc176d2408558f6e4111feebc3cab4e16b63e967be91cde721f4c8a488b55355517f17bc176d2408558f6e4111feebc3cab4e16b63e967be91cde721f4c8a488b554556102d56106f5565b6b01b73b9fadf310e4f3000000815266f8b0a10e47000060208083019182526276a700604084019081526002600052601190915291517f08037d7b151cc412d25674a4e66b334d9ae9d2e5517a7feaae5cdb828bf1c62855517f08037d7b151cc412d25674a4e66b334d9ae9d2e5517a7feaae5cdb828bf1c62955517f08037d7b151cc412d25674a4e66b334d9ae9d2e5517a7feaae5cdb828bf1c62a5561037b6106f5565b6b01b73b9fadf310e4f3000000815267013fbe85edc9000060208083019182526276a700604084019081526003600052601190915291517f9bfbaa59f8e10e7868f8b402de9d605a390c45ddaebd8c9de3c6f31e733c87ff55517f9bfbaa59f8e10e7868f8b402de9d605a390c45ddaebd8c9de3c6f31e733c880055517f9bfbaa59f8e10e7868f8b402de9d605a390c45ddaebd8c9de3c6f31e733c8801556104226106f5565b6adb9dcfd6f988727980000081526701aa535d3d0c000060208083019182526276a70060408085019182526004600052601190925292517f251164fe1d8864fe5e86082eae9c288bc2b58695a4d28538dfe86e9e4f1755855590517f251164fe1d8864fe5e86082eae9c288bc2b58695a4d28538dfe86e9e4f1755865590517f251164fe1d8864fe5e86082eae9c288bc2b58695a4d28538dfe86e9e4f175587556010805460ff1916905551611e83908161073a8239f35b634e487b7160e01b82526011600452602482fd5b631e4fbdf760e01b600052600060045260246000fd5b015190503880610132565b601f198216936004600052806000209160005b86811061055c5750836001959610610543575b505050811b01600455610148565b015160001960f88460031b161c19169055388080610535565b91926020600181928685015181550194019201610522565b60046000527f8a35acfbc15ff81a39ae7d344fd709f28e8600b4aa8c65c6b64bfe7fe36bd19b601f830160051c810191602084106105cf575b601f0160051c01905b8181106105c35750610117565b600081556001016105b6565b90915081906105ad565b634e487b7160e01b600052602260045260246000fd5b90607f1690610105565b634e487b7160e01b600052604160045260246000fd5b0151905038806100ce565b601f198216906003600052806000209160005b81811061066957509583600195969710610650575b505050811b016003556100e4565b015160001960f88460031b161c19169055388080610642565b9192602060018192868b01518155019401920161062d565b60036000527fc2575a0e9e593c00f959f8c92f12db2869c3395a3b0502d05e2516446f71f85b601f830160051c810191602084106106dc575b601f0160051c01905b8181106106d057506100b4565b600081556001016106c3565b90915081906106ba565b90607f16906100a2565b600080fd5b60405190606082016001600160401b038111838210176105f957604052565b6040519190601f01601f191682016001600160401b038111838210176105f95760405256fe608080604052600436101561001357600080fd5b60003560e01c9081630455444314611640575080630563451a1461162257806306fdde0314611563578063095ea7b3146114b157806318160ddd146114935780631f803ac31461147057806323b872dd1461142b5780632d296bf114610f895780632f48ab7d14610f60578063313ce56714610f445780633b7104f214610f285780633e0a322d14610ebb57806342966c6814610e9e57806348c54b9d14610d8e5780635ed9ebfc14610d705780636985a02214610d2e5780636b2d95d414610d0b57806370a0823114610ce8578063715018a614610c8b57806379cc679014610c5b57806379fbe63514610b1b5780637ad59431146109055780637ff9b596146108e7578063827037db146108c95780638da5cb5b146108a05780638e58e76e1461084e57806395d89b4114610746578063a0821be31461071b578063a0ce9433146106d5578063a9059cbb14610690578063ae3218bc1461060f578063b8e50cab146105f1578063bfdc33a814610510578063ccb98ffc14610496578063cd94b54b14610473578063dd62ed3e14610422578063e4f2487a146103fa578063e74f3fbb146102c2578063f2fde38b146102385763fdb20ccb146101d757600080fd5b34610233576020366003190112610233576001600160a01b036101f86116a4565b16600052600f602052608060406000208054906001810154906003600282015491015491604051938452602084015260408301526060820152f35b600080fd5b34610233576020366003190112610233576102516116a4565b610259611d21565b6001600160a01b031680156102ac57600580546001600160a01b0319811683179091556001600160a01b03167f8be0079c531659141344cd1fd0a4f28419497f9722a3daafe3b4186f6b6457e0600080a3005b631e4fbdf760e01b600052600060045260246000fd5b346102335760003660031901126102335733600052600f60205260406000208054156103b55760028101544210610370576102fc336117f6565b801561031f57600161031d92016103148282546118b6565b90553330611c5c565b005b60405162461bcd60e51b815260206004820152602360248201527f4e6f2076657374656420746f6b656e7320617661696c61626c6520746f20636c60448201526261696d60e81b6064820152608490fd5b60405162461bcd60e51b815260206004820152601b60248201527f4c6f636b20706572696f64206973207374696c6c2061637469766500000000006044820152606490fd5b60405162461bcd60e51b815260206004820152601f60248201527f4e6f20746f6b656e7320616c6c6f636174656420666f722076657374696e67006044820152606490fd5b3461023357600036600319011261023357602060ff60105416610420604051809261176b565bf35b346102335760403660031901126102335761043b6116a4565b6104436116ba565b6001600160a01b039182166000908152600160209081526040808320949093168252928352819020549051908152f35b3461023357600036600319011261023357602060ff600a54166040519015158152f35b34610233576020366003190112610233576004356104b2611d21565b6008548111156104c157600955005b60405162461bcd60e51b815260206004820152602160248201527f456e642074696d65206d7573742062652061667465722073746172742074696d6044820152606560f81b6064820152608490fd5b34610233576040366003190112610233576105296116a4565b60243590610535611d21565b6005546105629083906001600160a01b031661055b8261055483611aca565b101561190f565b3090611c5c565b61056e600d54426118b6565b6014830290838204601414841517156105db576003926040519461059186611778565b8552602085019060008252604086019283526064606087019404845260018060a01b0316600052600f60205260406000209451855551600185015551600284015551910155600080f35b634e487b7160e01b600052601160045260246000fd5b34610233576000366003190112610233576020600e54604051908152f35b34610233576040366003190112610233576106286116a4565b6001600160a01b0316600090815260126020526040902080546024359190821015610233576080916106599161174f565b50805490610689600182015491600360ff600283015416910154926040519485526020850152604084019061176b565b6060820152f35b34610233576040366003190112610233576106ca6106ac6116a4565b602435906106c4826106bd33611b2b565b101561186a565b33611c5c565b602060405160018152f35b34610233576106ed6106e6366116d0565b9190611708565b80548210156102335760209161070291611721565b905460405160039290921b1c6001600160a01b03168152f35b3461023357602036600319011261023357602061073e6107396116a4565b611b2b565b604051908152f35b346102335760003660031901126102335760405160006004548060011c90600181168015610844575b6020831081146108305782855290811561080c57506001146107ac575b6107a88361079c81850382611794565b6040519182918261165b565b0390f35b91905060046000527f8a35acfbc15ff81a39ae7d344fd709f28e8600b4aa8c65c6b64bfe7fe36bd19b916000905b8082106107f25750909150810160200161079c61078c565b9192600181602092548385880101520191019092916107da565b60ff191660208086019190915291151560051b8401909101915061079c905061078c565b634e487b7160e01b84526022600452602484fd5b91607f169161076f565b3461023357602036600319011261023357600435600781101561023357610874906116ef565b80546107a860026001840154930154604051938493846040919493926060820195825260208201520152565b34610233576000366003190112610233576005546040516001600160a01b039091168152602090f35b34610233576000366003190112610233576020600854604051908152f35b34610233576000366003190112610233576020600c54604051908152f35b34610233576020366003190112610233576004356007811080156102335761092b611d21565b60ff600a5416610ac65760018214600081610a9a575b8115610a70575b8115610a41575b8115610a12575b81156109e4575b501561099f57156109895761098260019160ff196010541660ff8216176010556116ef565b0154600c55005b634e487b7160e01b600052602160045260246000fd5b60405162461bcd60e51b815260206004820152601e60248201527f496e76616c69642073616c65207068617365207472616e736974696f6e2100006044820152606490fd5b90506109895760068214806109fa575b8361095d565b5060ff601054166007811015610989576004146109f4565b809150610989576004831480610a29575b90610956565b5060ff60105416600781101561098957600314610a23565b809150610989576003831480610a58575b9061094f565b5060ff60105416600781101561098957600214610a52565b90506002831480610a82575b90610948565b5060ff60105416600781101561098957600114610a7c565b905060ff601054166007811015610ab2571590610941565b634e487b7160e01b82526021600452602482fd5b60405162461bcd60e51b815260206004820152602760248201527f43616e6e6f74206368616e6765207068617365207768696c652049434f206973604482015266081c185d5cd95960ca1b6064820152608490fd5b3461023357610b29366116d0565b610b31611d21565b610b3a826116ef565b5415610c2157806002610b4c846116ef565b0155610b5782611708565b6000915b815483101561031d57610b6e8383611721565b60018060a01b0391549060031b1c16600052601260205260406000209160005b8354811015610c1357610ba1818561174f565b5054151580610be5575b90600191610bba575b01610b8e565b610bd18483610bc9848961174f565b5001546118b6565b6003610bdd838861174f565b500155610bb4565b5060ff6002610bf4838761174f565b5001541690600787101561098957600782101561098957908614610bab565b506001909301929150610b5b565b60405162461bcd60e51b8152602060048201526012602482015271496e76616c69642073616c6520706861736560701b6044820152606490fd5b346102335760403660031901126102335761031d610c776116a4565b60243590610c86823383611dcb565b611d4a565b3461023357600036600319011261023357610ca4611d21565b600580546001600160a01b031981169091556000906001600160a01b03167f8be0079c531659141344cd1fd0a4f28419497f9722a3daafe3b4186f6b6457e08280a3005b3461023357602036600319011261023357602061073e610d066116a4565b611aca565b3461023357602036600319011261023357602061073e610d296116a4565b611a7c565b3461023357600036600319011261023357610d47611d21565b600a5460ff8082161516809160ff191617600a55610d6157005b6010805460ff19166005179055005b34610233576000366003190112610233576020600b54604051908152f35b3461023357600036600319011261023357336000526012602052604060002060009060005b8154811015610e2457610dc6818361174f565b5054151580610e0c575b610ddd575b600101610db3565b91610df6600191610dee858561174f565b5054906118b6565b926000610e03828561174f565b50559050610dd5565b506003610e19828461174f565b500154421015610dd0565b828015610e59576040519081527f896e034966eaaf1adc54acc0f257056febbd300c9e47182cf761982cf1f5e43060203392a2005b60405162461bcd60e51b815260206004820152601b60248201527f4e6f20756e6c6f636b656420746f6b656e7320746f20636c61696d00000000006044820152606490fd5b346102335760203660031901126102335761031d60043533611d4a565b3461023357602036600319011261023357600435610ed7611d21565b42811115610ee457600855005b606460405162461bcd60e51b815260206004820152602060248201527f53746172742074696d65206d75737420626520696e20746865206675747572656044820152fd5b34610233576000366003190112610233576107a861079c61195b565b3461023357600036600319011261023357602060405160128152f35b34610233576000366003190112610233576007546040516001600160a01b039091168152602090f35b6020366003190112610233576004356008544210158061141f575b156113e6576002600654146113d557600260065560ff601054166007811015806109895781151590816113c7575b816113b6575b501561137a57610fe7906116ef565b90610ff66002830154426118b6565b34159081611231576001840154670de0b6b3a7640000340290348204670de0b6b3a7640000148417156105db5760008061103381949382946117c3565b95611041878a5410156118c3565b60018060a01b03600554168291611227575b3491f11561121b575b600554611077908390610554906001600160a01b0316611aca565b33600052601260205260406000209260ff601054166040519061109982611778565b848252602082014281526110b160408401928361194f565b60608301968588528054600160401b811015611205576110d69160018201815561174f565b9390936111ef575183555160018301556002820190519560078710156109895760039160009760ff801983541691161790555191015561111a60ff60105416611708565b94855495600160401b8710156111db578661115d9160017f884543c08d36fb5c9b3b688dd0453c9f287199124bdbddb3b7f9ca885a4d34a0979899018155611721565b81549060031b9033821b9160018060a01b03901b191617905561118285600b546118b6565b600b556111908582546117b6565b90556005546111ab90859033906001600160a01b0316611c5c565b80156111d357925b6040805194855260208501919091528301523391606090a2600160065580f35b5034926111b3565b634e487b7160e01b86526041600452602486fd5b634e487b7160e01b600052600060045260246000fd5b634e487b7160e01b600052604160045260246000fd5b6040513d6000823e3d90fd5b6108fc9150611053565b9050811561133f57670de0b6b3a76400008202828104670de0b6b3a7640000036105db576001840154611263916117c3565b9061127182855410156118c3565b6007546040516323b872dd60e01b81523360048201523060248201526044810185905290602090829060649082906000906001600160a01b03165af190811561121b576000916112fd575b5061105c5760405162461bcd60e51b81526020600482015260146024820152731554d115081d1c985b9cd9995c8819985a5b195960621b6044820152606490fd5b6020813d602011611337575b8161131660209383611794565b8101031261133357519081151582036113305750856112bc565b80fd5b5080fd5b3d9150611309565b60405162461bcd60e51b8152602060048201526013602482015272125b9d985b1a59081554d11508185b5bdd5b9d606a1b6044820152606490fd5b60405162461bcd60e51b81526020600482015260146024820152734e6f206163746976652073616c6520706861736560601b6044820152606490fd5b905061098957600681141583610fd8565b505060058114156000610fd2565b633ee5aeb560e01b60005260046000fd5b60405162461bcd60e51b815260206004820152601160248201527049434f206973206e6f742061637469766560781b6044820152606490fd5b50600954421115610fa4565b34610233576060366003190112610233576106ca6114476116a4565b61144f6116ba565b60443591611460836106bd83611b2b565b61146b833383611dcb565b611c5c565b3461023357602036600319011261023357602061073e61148e6116a4565b6117f6565b34610233576000366003190112610233576020600254604051908152f35b34610233576040366003190112610233576114ca6116a4565b60243590331561154d576001600160a01b031690811561153757336000526001602052604060002082600052602052806040600020556040519081527f8c5be1e5ebec7d5bd14f71427d1e84f3dd0314c0f7b2291e5b200ac8c7c3b92560203392a3602060405160018152f35b634a1406b160e11b600052600060045260246000fd5b63e602df0560e01b600052600060045260246000fd5b346102335760003660031901126102335760405160006003548060011c90600181168015611618575b6020831081146108305782855290811561080c57506001146115b8576107a88361079c81850382611794565b91905060036000527fc2575a0e9e593c00f959f8c92f12db2869c3395a3b0502d05e2516446f71f85b916000905b8082106115fe5750909150810160200161079c61078c565b9192600181602092548385880101520191019092916115e6565b91607f169161158c565b34610233576000366003190112610233576020600954604051908152f35b3461023357600036600319011261023357602090600d548152f35b91909160208152825180602083015260005b81811061168e575060409293506000838284010152601f8019910116010190565b806020809287010151604082860101520161166d565b600435906001600160a01b038216820361023357565b602435906001600160a01b038216820361023357565b6040906003190112610233576004356007811015610233579060243590565b6007811015610989576000526011602052604060002090565b6007811015610989576000526013602052604060002090565b80548210156117395760005260206000200190600090565b634e487b7160e01b600052603260045260246000fd5b80548210156117395760005260206000209060021b0190600090565b9060078210156109895752565b6080810190811067ffffffffffffffff82111761120557604052565b90601f8019910116810190811067ffffffffffffffff82111761120557604052565b919082039182116105db57565b81156117cd570490565b634e487b7160e01b600052601260045260246000fd5b818102929181159184041417156105db57565b6001600160a01b03166000908152600f602052604090206002810154904282116118635761184161183661182d61185794426117b6565b600e54906117c3565b6003830154906117e3565b90805480831161185a575b5060010154906117b6565b90565b9150600161184c565b5050600090565b1561187157565b60405162461bcd60e51b815260206004820152601d60248201527f496e73756666696369656e7420756e6c6f636b65642062616c616e63650000006044820152606490fd5b919082018092116105db57565b156118ca57565b60405162461bcd60e51b815260206004820152601d60248201527f496e73756666696369656e7420616c6c6f636174656420746f6b656e730000006044820152606490fd5b1561191657565b60405162461bcd60e51b81526020600482015260116024820152704e6f7420656e6f75676820746f6b656e7360781b6044820152606490fd5b60078210156109895752565b60ff600a5416611a415760085480158015611a37575b611a285742101580611a1c575b6119f15760095442116119c657604051611999604082611794565b601781527f49434f20686173206e6f74207374617274656420796574000000000000000000602082015290565b6040516119d4604082611794565b600d81526c1250d3c81a185cc8195b991959609a1b602082015290565b6040516119ff604082611794565b600d81526c49434f2069732061637469766560981b602082015290565b5060095442111561197e565b50604051611999604082611794565b5060095415611971565b604051611a4f604082611794565b601f81527f49434f206973206d616e75616c6c7920706175736564206279206f776e657200602082015290565b6001600160a01b03166000908152600f602052604090206002810154428111611ac55790611ab361183661182d61185794426117b6565b9054808211156117b6579050806117b6565b505490565b6001600160a01b031660009081526020818152604080832054600f9092528220805461185793929181611aff575b50506118b6565b611b0f92935060010154906117b6565b903880611af8565b80518210156117395760209160051b010190565b6001600160a01b0381166000908152601260205260408120805490939067ffffffffffffffff8111611c485760405194611b6b60208360051b0187611794565b81865283526020808420849187015b838310611bfd5750505050815b8451811015611be957611b9a8186611b17565b5151151580611bd2575b611bb1575b600101611b87565b91611bca600191611bc28588611b17565b5151906118b6565b929050611ba9565b506060611bdf8287611b17565b5101514210611ba4565b509250611bf861185792611aca565b6117b6565b60046020600192604051611c1081611778565b855481528486015483820152611c3060ff6002880154166040830161194f565b60038601546060820152815201920192019190611b7a565b634e487b7160e01b83526041600452602483fd5b6001600160a01b0316908115611d0b576001600160a01b0316918215611cf5576000828152806020526040812054828110611cdb5791604082827fddf252ad1be2c89b69c2b068fc378daa952ba7f163c4a11628f55a4df523b3ef958760209652828652038282205586815280845220818154019055604051908152a3565b916064928463391434e360e21b8452600452602452604452fd5b63ec442f0560e01b600052600060045260246000fd5b634b637e8f60e11b600052600060045260246000fd5b6005546001600160a01b03163303611d3557565b63118cdaa760e01b6000523360045260246000fd5b6001600160a01b03168015611d0b57600091818352826020526040832054818110611db257817fddf252ad1be2c89b69c2b068fc378daa952ba7f163c4a11628f55a4df523b3ef926020928587528684520360408620558060025403600255604051908152a3565b6064939263391434e360e21b8452600452602452604452fd5b6001600160a01b039081166000818152600160209081526040808320948616835293905291909120549291906000198410611e07575b50505050565b828410611e5157801561154d576001600160a01b0382161561153757600052600160205260406000209060018060a01b031660005260205260406000209103905538808080611e01565b508290637dc7a0d960e11b60005260018060a01b031660045260245260445260646000fdfea164736f6c634300081c000a",
          "opcodes": "PUSH1 0x80 PUSH1 0x40 MSTORE CALLVALUE PUSH2 0x6F0 JUMPI PUSH2 0x25BD PUSH1 0x20 DUP2 CODESIZE SUB SWAP2 DUP3 PUSH2 0x1C DUP2 PUSH2 0x714 JUMP JUMPDEST SWAP4 DUP5 SWAP3 DUP4 CODECOPY DUP2 ADD SUB SLT PUSH2 0x6F0 JUMPI MLOAD PUSH1 0x1 PUSH1 0x1 PUSH1 0xA0 SHL SUB DUP2 AND SWAP1 DUP2 SWAP1 SUB PUSH2 0x6F0 JUMPI PUSH2 0x46 PUSH1 0x40 PUSH2 0x714 JUMP JUMPDEST SWAP1 PUSH1 0x10 DUP3 MSTORE PUSH16 0x21B430B4B729B83432B932AA37B5B2B7 PUSH1 0x81 SHL PUSH1 0x20 DUP4 ADD MSTORE PUSH2 0x6E PUSH1 0x40 PUSH2 0x714 JUMP JUMPDEST PUSH1 0x3 DUP2 MSTORE PUSH3 0x43535 PUSH1 0xEC SHL PUSH1 0x20 DUP3 ADD MSTORE DUP3 MLOAD SWAP1 SWAP2 SWAP1 PUSH1 0x1 PUSH1 0x1 PUSH1 0x40 SHL SUB DUP2 GT PUSH2 0x5F9 JUMPI PUSH1 0x3 SLOAD PUSH1 0x1 DUP2 DUP2 SHR SWAP2 AND DUP1 ISZERO PUSH2 0x6E6 JUMPI JUMPDEST PUSH1 0x20 DUP3 LT EQ PUSH2 0x5D9 JUMPI PUSH1 0x1F DUP2 GT PUSH2 0x681 JUMPI JUMPDEST POP PUSH1 0x20 PUSH1 0x1F DUP3 GT PUSH1 0x1 EQ PUSH2 0x61A JUMPI DUP2 SWAP3 SWAP4 SWAP5 PUSH1 0x0 SWAP3 PUSH2 0x60F JUMPI JUMPDEST POP POP DUP2 PUSH1 0x1 SHL SWAP2 PUSH1 0x0 NOT SWAP1 PUSH1 0x3 SHL SHR NOT AND OR PUSH1 0x3 SSTORE JUMPDEST DUP2 MLOAD PUSH1 0x1 PUSH1 0x1 PUSH1 0x40 SHL SUB DUP2 GT PUSH2 0x5F9 JUMPI PUSH1 0x4 SLOAD PUSH1 0x1 DUP2 DUP2 SHR SWAP2 AND DUP1 ISZERO PUSH2 0x5EF JUMPI JUMPDEST PUSH1 0x20 DUP3 LT EQ PUSH2 0x5D9 JUMPI PUSH1 0x1F DUP2 GT PUSH2 0x574 JUMPI JUMPDEST POP PUSH1 0x20 SWAP3 PUSH1 0x1F DUP3 GT PUSH1 0x1 EQ PUSH2 0x50F JUMPI SWAP3 DUP2 SWAP3 SWAP4 PUSH1 0x0 SWAP3 PUSH2 0x504 JUMPI JUMPDEST POP POP DUP2 PUSH1 0x1 SHL SWAP2 PUSH1 0x0 NOT SWAP1 PUSH1 0x3 SHL SHR NOT AND OR PUSH1 0x4 SSTORE JUMPDEST CALLER ISZERO PUSH2 0x4EE JUMPI PUSH1 0x5 DUP1 SLOAD CALLER PUSH1 0x1 PUSH1 0x1 PUSH1 0xA0 SHL SUB NOT DUP3 AND DUP2 OR SWAP1 SWAP3 SSTORE PUSH1 0x1 PUSH1 0x1 PUSH1 0xA0 SHL SUB AND PUSH32 0x8BE0079C531659141344CD1FD0A4F28419497F9722A3DAAFE3B4186F6B6457E0 PUSH1 0x0 DUP1 LOG3 PUSH1 0x1 PUSH1 0x6 SSTORE PUSH1 0x78 PUSH1 0xD SSTORE PUSH1 0x3C PUSH1 0xE SSTORE PUSH1 0x1 DUP1 PUSH1 0xA0 SHL SUB NOT PUSH1 0x7 SLOAD AND OR PUSH1 0x7 SSTORE PUSH1 0x0 PUSH1 0x2 SLOAD PUSH12 0x1128543CCB7EA8F17E000000 DUP2 ADD DUP1 SWAP2 GT PUSH2 0x4DA JUMPI PUSH1 0x2 SSTORE POP CALLER PUSH1 0x0 MSTORE PUSH1 0x0 PUSH1 0x20 MSTORE PUSH1 0x40 PUSH1 0x0 KECCAK256 PUSH12 0x1128543CCB7EA8F17E000000 DUP2 SLOAD ADD SWAP1 SSTORE PUSH1 0x40 MLOAD PUSH12 0x1128543CCB7EA8F17E000000 DUP2 MSTORE PUSH1 0x0 PUSH32 0xDDF252AD1BE2C89B69C2B068FC378DAA952BA7F163C4A11628F55A4DF523B3EF PUSH1 0x20 CALLER SWAP4 LOG3 PUSH2 0x231 PUSH2 0x6F5 JUMP JUMPDEST PUSH12 0x1B73B9FADF310E4F3000000 DUP2 MSTORE PUSH7 0xB1A2BC2EC50000 PUSH1 0x20 DUP1 DUP4 ADD SWAP2 DUP3 MSTORE PUSH1 0x64 PUSH1 0x40 DUP5 ADD SWAP1 DUP2 MSTORE PUSH1 0x1 PUSH1 0x0 MSTORE PUSH1 0x11 SWAP1 SWAP2 MSTORE SWAP2 MLOAD PUSH32 0x17BC176D2408558F6E4111FEEBC3CAB4E16B63E967BE91CDE721F4C8A488B552 SSTORE MLOAD PUSH32 0x17BC176D2408558F6E4111FEEBC3CAB4E16B63E967BE91CDE721F4C8A488B553 SSTORE MLOAD PUSH32 0x17BC176D2408558F6E4111FEEBC3CAB4E16B63E967BE91CDE721F4C8A488B554 SSTORE PUSH2 0x2D5 PUSH2 0x6F5 JUMP JUMPDEST PUSH12 0x1B73B9FADF310E4F3000000 DUP2 MSTORE PUSH7 0xF8B0A10E470000 PUSH1 0x20 DUP1 DUP4 ADD SWAP2 DUP3 MSTORE PUSH3 0x76A700 PUSH1 0x40 DUP5 ADD SWAP1 DUP2 MSTORE PUSH1 0x2 PUSH1 0x0 MSTORE PUSH1 0x11 SWAP1 SWAP2 MSTORE SWAP2 MLOAD PUSH32 0x8037D7B151CC412D25674A4E66B334D9AE9D2E5517A7FEAAE5CDB828BF1C628 SSTORE MLOAD PUSH32 0x8037D7B151CC412D25674A4E66B334D9AE9D2E5517A7FEAAE5CDB828BF1C629 SSTORE MLOAD PUSH32 0x8037D7B151CC412D25674A4E66B334D9AE9D2E5517A7FEAAE5CDB828BF1C62A SSTORE PUSH2 0x37B PUSH2 0x6F5 JUMP JUMPDEST PUSH12 0x1B73B9FADF310E4F3000000 DUP2 MSTORE PUSH8 0x13FBE85EDC90000 PUSH1 0x20 DUP1 DUP4 ADD SWAP2 DUP3 MSTORE PUSH3 0x76A700 PUSH1 0x40 DUP5 ADD SWAP1 DUP2 MSTORE PUSH1 0x3 PUSH1 0x0 MSTORE PUSH1 0x11 SWAP1 SWAP2 MSTORE SWAP2 MLOAD PUSH32 0x9BFBAA59F8E10E7868F8B402DE9D605A390C45DDAEBD8C9DE3C6F31E733C87FF SSTORE MLOAD PUSH32 0x9BFBAA59F8E10E7868F8B402DE9D605A390C45DDAEBD8C9DE3C6F31E733C8800 SSTORE MLOAD PUSH32 0x9BFBAA59F8E10E7868F8B402DE9D605A390C45DDAEBD8C9DE3C6F31E733C8801 SSTORE PUSH2 0x422 PUSH2 0x6F5 JUMP JUMPDEST PUSH11 0xDB9DCFD6F9887279800000 DUP2 MSTORE PUSH8 0x1AA535D3D0C0000 PUSH1 0x20 DUP1 DUP4 ADD SWAP2 DUP3 MSTORE PUSH3 0x76A700 PUSH1 0x40 DUP1 DUP6 ADD SWAP2 DUP3 MSTORE PUSH1 0x4 PUSH1 0x0 MSTORE PUSH1 0x11 SWAP1 SWAP3 MSTORE SWAP3 MLOAD PUSH32 0x251164FE1D8864FE5E86082EAE9C288BC2B58695A4D28538DFE86E9E4F175585 SSTORE SWAP1 MLOAD PUSH32 0x251164FE1D8864FE5E86082EAE9C288BC2B58695A4D28538DFE86E9E4F175586 SSTORE SWAP1 MLOAD PUSH32 0x251164FE1D8864FE5E86082EAE9C288BC2B58695A4D28538DFE86E9E4F175587 SSTORE PUSH1 0x10 DUP1 SLOAD PUSH1 0xFF NOT AND SWAP1 SSTORE MLOAD PUSH2 0x1E83 SWAP1 DUP2 PUSH2 0x73A DUP3 CODECOPY RETURN JUMPDEST PUSH4 0x4E487B71 PUSH1 0xE0 SHL DUP3 MSTORE PUSH1 0x11 PUSH1 0x4 MSTORE PUSH1 0x24 DUP3 REVERT JUMPDEST PUSH4 0x1E4FBDF7 PUSH1 0xE0 SHL PUSH1 0x0 MSTORE PUSH1 0x0 PUSH1 0x4 MSTORE PUSH1 0x24 PUSH1 0x0 REVERT JUMPDEST ADD MLOAD SWAP1 POP CODESIZE DUP1 PUSH2 0x132 JUMP JUMPDEST PUSH1 0x1F NOT DUP3 AND SWAP4 PUSH1 0x4 PUSH1 0x0 MSTORE DUP1 PUSH1 0x0 KECCAK256 SWAP2 PUSH1 0x0 JUMPDEST DUP7 DUP2 LT PUSH2 0x55C JUMPI POP DUP4 PUSH1 0x1 SWAP6 SWAP7 LT PUSH2 0x543 JUMPI JUMPDEST POP POP POP DUP2 SHL ADD PUSH1 0x4 SSTORE PUSH2 0x148 JUMP JUMPDEST ADD MLOAD PUSH1 0x0 NOT PUSH1 0xF8 DUP5 PUSH1 0x3 SHL AND SHR NOT AND SWAP1 SSTORE CODESIZE DUP1 DUP1 PUSH2 0x535 JUMP JUMPDEST SWAP2 SWAP3 PUSH1 0x20 PUSH1 0x1 DUP2 SWAP3 DUP7 DUP6 ADD MLOAD DUP2 SSTORE ADD SWAP5 ADD SWAP3 ADD PUSH2 0x522 JUMP JUMPDEST PUSH1 0x4 PUSH1 0x0 MSTORE PUSH32 0x8A35ACFBC15FF81A39AE7D344FD709F28E8600B4AA8C65C6B64BFE7FE36BD19B PUSH1 0x1F DUP4 ADD PUSH1 0x5 SHR DUP2 ADD SWAP2 PUSH1 0x20 DUP5 LT PUSH2 0x5CF JUMPI JUMPDEST PUSH1 0x1F ADD PUSH1 0x5 SHR ADD SWAP1 JUMPDEST DUP2 DUP2 LT PUSH2 0x5C3 JUMPI POP PUSH2 0x117 JUMP JUMPDEST PUSH1 0x0 DUP2 SSTORE PUSH1 0x1 ADD PUSH2 0x5B6 JUMP JUMPDEST SWAP1 SWAP2 POP DUP2 SWAP1 PUSH2 0x5AD JUMP JUMPDEST PUSH4 0x4E487B71 PUSH1 0xE0 SHL PUSH1 0x0 MSTORE PUSH1 0x22 PUSH1 0x4 MSTORE PUSH1 0x24 PUSH1 0x0 REVERT JUMPDEST SWAP1 PUSH1 0x7F AND SWAP1 PUSH2 0x105 JUMP JUMPDEST PUSH4 0x4E487B71 PUSH1 0xE0 SHL PUSH1 0x0 MSTORE PUSH1 0x41 PUSH1 0x4 MSTORE PUSH1 0x24 PUSH1 0x0 REVERT JUMPDEST ADD MLOAD SWAP1 POP CODESIZE DUP1 PUSH2 0xCE JUMP JUMPDEST PUSH1 0x1F NOT DUP3 AND SWAP1 PUSH1 0x3 PUSH1 0x0 MSTORE DUP1 PUSH1 0x0 KECCAK256 SWAP2 PUSH1 0x0 JUMPDEST DUP2 DUP2 LT PUSH2 0x669 JUMPI POP SWAP6 DUP4 PUSH1 0x1 SWAP6 SWAP7 SWAP8 LT PUSH2 0x650 JUMPI JUMPDEST POP POP POP DUP2 SHL ADD PUSH1 0x3 SSTORE PUSH2 0xE4 JUMP JUMPDEST ADD MLOAD PUSH1 0x0 NOT PUSH1 0xF8 DUP5 PUSH1 0x3 SHL AND SHR NOT AND SWAP1 SSTORE CODESIZE DUP1 DUP1 PUSH2 0x642 JUMP JUMPDEST SWAP2 SWAP3 PUSH1 0x20 PUSH1 0x1 DUP2 SWAP3 DUP7 DUP12 ADD MLOAD DUP2 SSTORE ADD SWAP5 ADD SWAP3 ADD PUSH2 0x62D JUMP JUMPDEST PUSH1 0x3 PUSH1 0x0 MSTORE PUSH32 0xC2575A0E9E593C00F959F8C92F12DB2869C3395A3B0502D05E2516446F71F85B PUSH1 0x1F DUP4 ADD PUSH1 0x5 SHR DUP2 ADD SWAP2 PUSH1 0x20 DUP5 LT PUSH2 0x6DC JUMPI JUMPDEST PUSH1 0x1F ADD PUSH1 0x5 SHR ADD SWAP1 JUMPDEST DUP2 DUP2 LT PUSH2 0x6D0 JUMPI POP PUSH2 0xB4 JUMP JUMPDEST PUSH1 0x0 DUP2 SSTORE PUSH1 0x1 ADD PUSH2 0x6C3 JUMP JUMPDEST SWAP1 SWAP2 POP DUP2 SWAP1 PUSH2 0x6BA JUMP JUMPDEST SWAP1 PUSH1 0x7F AND SWAP1 PUSH2 0xA2 JUMP JUMPDEST PUSH1 0x0 DUP1 REVERT JUMPDEST PUSH1 0x40 MLOAD SWAP1 PUSH1 0x60 DUP3 ADD PUSH1 0x1 PUSH1 0x1 PUSH1 0x40 SHL SUB DUP2 GT DUP4 DUP3 LT OR PUSH2 0x5F9 JUMPI PUSH1 0x40 MSTORE JUMP JUMPDEST PUSH1 0x40 MLOAD SWAP2 SWAP1 PUSH1 0x1F ADD PUSH1 0x1F NOT AND DUP3 ADD PUSH1 0x1 PUSH1 0x1 PUSH1 0x40 SHL SUB DUP2 GT DUP4 DUP3 LT OR PUSH2 0x5F9 JUMPI PUSH1 0x40 MSTORE JUMP INVALID PUSH1 0x80 DUP1 PUSH1 0x40 MSTORE PUSH1 0x4 CALLDATASIZE LT ISZERO PUSH2 0x13 JUMPI PUSH1 0x0 DUP1 REVERT JUMPDEST PUSH1 0x0 CALLDATALOAD PUSH1 0xE0 SHR SWAP1 DUP2 PUSH4 0x4554443 EQ PUSH2 0x1640 JUMPI POP DUP1 PUSH4 0x563451A EQ PUSH2 0x1622 JUMPI DUP1 PUSH4 0x6FDDE03 EQ PUSH2 0x1563 JUMPI DUP1 PUSH4 0x95EA7B3 EQ PUSH2 0x14B1 JUMPI DUP1 PUSH4 0x18160DDD EQ PUSH2 0x1493 JUMPI DUP1 PUSH4 0x1F803AC3 EQ PUSH2 0x1470 JUMPI DUP1 PUSH4 0x23B872DD EQ PUSH2 0x142B JUMPI DUP1 PUSH4 0x2D296BF1 EQ PUSH2 0xF89 JUMPI DUP1 PUSH4 0x2F48AB7D EQ PUSH2 0xF60 JUMPI DUP1 PUSH4 0x313CE567 EQ PUSH2 0xF44 JUMPI DUP1 PUSH4 0x3B7104F2 EQ PUSH2 0xF28 JUMPI DUP1 PUSH4 0x3E0A322D EQ PUSH2 0xEBB JUMPI DUP1 PUSH4 0x42966C68 EQ PUSH2 0xE9E JUMPI DUP1 PUSH4 0x48C54B9D EQ PUSH2 0xD8E JUMPI DUP1 PUSH4 0x5ED9EBFC EQ PUSH2 0xD70 JUMPI DUP1 PUSH4 0x6985A022 EQ PUSH2 0xD2E JUMPI DUP1 PUSH4 0x6B2D95D4 EQ PUSH2 0xD0B JUMPI DUP1 PUSH4 0x70A08231 EQ PUSH2 0xCE8 JUMPI DUP1 PUSH4 0x715018A6 EQ PUSH2 0xC8B JUMPI DUP1 PUSH4 0x79CC6790 EQ PUSH2 0xC5B JUMPI DUP1 PUSH4 0x79FBE635 EQ PUSH2 0xB1B JUMPI DUP1 PUSH4 0x7AD59431 EQ PUSH2 0x905 JUMPI DUP1 PUSH4 0x7FF9B596 EQ PUSH2 0x8E7 JUMPI DUP1 PUSH4 0x827037DB EQ PUSH2 0x8C9 JUMPI DUP1 PUSH4 0x8DA5CB5B EQ PUSH2 0x8A0 JUMPI DUP1 PUSH4 0x8E58E76E EQ PUSH2 0x84E JUMPI DUP1 PUSH4 0x95D89B41 EQ PUSH2 0x746 JUMPI DUP1 PUSH4 0xA0821BE3 EQ PUSH2 0x71B JUMPI DUP1 PUSH4 0xA0CE9433 EQ PUSH2 0x6D5 JUMPI DUP1 PUSH4 0xA9059CBB EQ PUSH2 0x690 JUMPI DUP1 PUSH4 0xAE3218BC EQ PUSH2 0x60F JUMPI DUP1 PUSH4 0xB8E50CAB EQ PUSH2 0x5F1 JUMPI DUP1 PUSH4 0xBFDC33A8 EQ PUSH2 0x510 JUMPI DUP1 PUSH4 0xCCB98FFC EQ PUSH2 0x496 JUMPI DUP1 PUSH4 0xCD94B54B EQ PUSH2 0x473 JUMPI DUP1 PUSH4 0xDD62ED3E EQ PUSH2 0x422 JUMPI DUP1 PUSH4 0xE4F2487A EQ PUSH2 0x3FA JUMPI DUP1 PUSH4 0xE74F3FBB EQ PUSH2 0x2C2 JUMPI DUP1 PUSH4 0xF2FDE38B EQ PUSH2 0x238 JUMPI PUSH4 0xFDB20CCB EQ PUSH2 0x1D7 JUMPI PUSH1 0x0 DUP1 REVERT JUMPDEST CALLVALUE PUSH2 0x233 JUMPI PUSH1 0x20 CALLDATASIZE PUSH1 0x3 NOT ADD SLT PUSH2 0x233 JUMPI PUSH1 0x1 PUSH1 0x1 PUSH1 0xA0 SHL SUB PUSH2 0x1F8 PUSH2 0x16A4 JUMP JUMPDEST AND PUSH1 0x0 MSTORE PUSH1 0xF PUSH1 0x20 MSTORE PUSH1 0x80 PUSH1 0x40 PUSH1 0x0 KECCAK256 DUP1 SLOAD SWAP1 PUSH1 0x1 DUP2 ADD SLOAD SWAP1 PUSH1 0x3 PUSH1 0x2 DUP3 ADD SLOAD SWAP2 ADD SLOAD SWAP2 PUSH1 0x40 MLOAD SWAP4 DUP5 MSTORE PUSH1 0x20 DUP5 ADD MSTORE PUSH1 0x40 DUP4 ADD MSTORE PUSH1 0x60 DUP3 ADD MSTORE RETURN JUMPDEST PUSH1 0x0 DUP1 REVERT JUMPDEST CALLVALUE PUSH2 0x233 JUMPI PUSH1 0x20 CALLDATASIZE PUSH1 0x3 NOT ADD SLT PUSH2 0x233 JUMPI PUSH2 0x251 PUSH2 0x16A4 JUMP JUMPDEST PUSH2 0x259 PUSH2 0x1D21 JUMP JUMPDEST PUSH1 0x1 PUSH1 0x1 PUSH1 0xA0 SHL SUB AND DUP1 ISZERO PUSH2 0x2AC JUMPI PUSH1 0x5 DUP1 SLOAD PUSH1 0x1 PUSH1 0x1 PUSH1 0xA0 SHL SUB NOT DUP2 AND DUP4 OR SWAP1 SWAP2 SSTORE PUSH1 0x1 PUSH1 0x1 PUSH1 0xA0 SHL SUB AND PUSH32 0x8BE0079C531659141344CD1FD0A4F28419497F9722A3DAAFE3B4186F6B6457E0 PUSH1 0x0 DUP1 LOG3 STOP JUMPDEST PUSH4 0x1E4FBDF7 PUSH1 0xE0 SHL PUSH1 0x0 MSTORE PUSH1 0x0 PUSH1 0x4 MSTORE PUSH1 0x24 PUSH1 0x0 REVERT JUMPDEST CALLVALUE PUSH2 0x233 JUMPI PUSH1 0x0 CALLDATASIZE PUSH1 0x3 NOT ADD SLT PUSH2 0x233 JUMPI CALLER PUSH1 0x0 MSTORE PUSH1 0xF PUSH1 0x20 MSTORE PUSH1 0x40 PUSH1 0x0 KECCAK256 DUP1 SLOAD ISZERO PUSH2 0x3B5 JUMPI PUSH1 0x2 DUP2 ADD SLOAD TIMESTAMP LT PUSH2 0x370 JUMPI PUSH2 0x2FC CALLER PUSH2 0x17F6 JUMP JUMPDEST DUP1 ISZERO PUSH2 0x31F JUMPI PUSH1 0x1 PUSH2 0x31D SWAP3 ADD PUSH2 0x314 DUP3 DUP3 SLOAD PUSH2 0x18B6 JUMP JUMPDEST SWAP1 SSTORE CALLER ADDRESS PUSH2 0x1C5C JUMP JUMPDEST STOP JUMPDEST PUSH1 0x40 MLOAD PUSH3 0x461BCD PUSH1 0xE5 SHL DUP2 MSTORE PUSH1 0x20 PUSH1 0x4 DUP3 ADD MSTORE PUSH1 0x23 PUSH1 0x24 DUP3 ADD MSTORE PUSH32 0x4E6F2076657374656420746F6B656E7320617661696C61626C6520746F20636C PUSH1 0x44 DUP3 ADD MSTORE PUSH3 0x61696D PUSH1 0xE8 SHL PUSH1 0x64 DUP3 ADD MSTORE PUSH1 0x84 SWAP1 REVERT JUMPDEST PUSH1 0x40 MLOAD PUSH3 0x461BCD PUSH1 0xE5 SHL DUP2 MSTORE PUSH1 0x20 PUSH1 0x4 DUP3 ADD MSTORE PUSH1 0x1B PUSH1 0x24 DUP3 ADD MSTORE PUSH32 0x4C6F636B20706572696F64206973207374696C6C206163746976650000000000 PUSH1 0x44 DUP3 ADD MSTORE PUSH1 0x64 SWAP1 REVERT JUMPDEST PUSH1 0x40 MLOAD PUSH3 0x461BCD PUSH1 0xE5 SHL DUP2 MSTORE PUSH1 0x20 PUSH1 0x4 DUP3 ADD MSTORE PUSH1 0x1F PUSH1 0x24 DUP3 ADD MSTORE PUSH32 0x4E6F20746F6B656E7320616C6C6F636174656420666F722076657374696E6700 PUSH1 0x44 DUP3 ADD MSTORE PUSH1 0x64 SWAP1 REVERT JUMPDEST CALLVALUE PUSH2 0x233 JUMPI PUSH1 0x0 CALLDATASIZE PUSH1 0x3 NOT ADD SLT PUSH2 0x233 JUMPI PUSH1 0x20 PUSH1 0xFF PUSH1 0x10 SLOAD AND PUSH2 0x420 PUSH1 0x40 MLOAD DUP1 SWAP3 PUSH2 0x176B JUMP JUMPDEST RETURN JUMPDEST CALLVALUE PUSH2 0x233 JUMPI PUSH1 0x40 CALLDATASIZE PUSH1 0x3 NOT ADD SLT PUSH2 0x233 JUMPI PUSH2 0x43B PUSH2 0x16A4 JUMP JUMPDEST PUSH2 0x443 PUSH2 0x16BA JUMP JUMPDEST PUSH1 0x1 PUSH1 0x1 PUSH1 0xA0 SHL SUB SWAP2 DUP3 AND PUSH1 0x0 SWAP1 DUP2 MSTORE PUSH1 0x1 PUSH1 0x20 SWAP1 DUP2 MSTORE PUSH1 0x40 DUP1 DUP4 KECCAK256 SWAP5 SWAP1 SWAP4 AND DUP3 MSTORE SWAP3 DUP4 MSTORE DUP2 SWAP1 KECCAK256 SLOAD SWAP1 MLOAD SWAP1 DUP2 MSTORE RETURN JUMPDEST CALLVALUE PUSH2 0x233 JUMPI PUSH1 0x0 CALLDATASIZE PUSH1 0x3 NOT ADD SLT PUSH2 0x233 JUMPI PUSH1 0x20 PUSH1 0xFF PUSH1 0xA SLOAD AND PUSH1 0x40 MLOAD SWAP1 ISZERO ISZERO DUP2 MSTORE RETURN JUMPDEST CALLVALUE PUSH2 0x233 JUMPI PUSH1 0x20 CALLDATASIZE PUSH1 0x3 NOT ADD SLT PUSH2 0x233 JUMPI PUSH1 0x4 CALLDATALOAD PUSH2 0x4B2 PUSH2 0x1D21 JUMP JUMPDEST PUSH1 0x8 SLOAD DUP2 GT ISZERO PUSH2 0x4C1 JUMPI PUSH1 0x9 SSTORE STOP JUMPDEST PUSH1 0x40 MLOAD PUSH3 0x461BCD PUSH1 0xE5 SHL DUP2 MSTORE PUSH1 0x20 PUSH1 0x4 DUP3 ADD MSTORE PUSH1 0x21 PUSH1 0x24 DUP3 ADD MSTORE PUSH32 0x456E642074696D65206D7573742062652061667465722073746172742074696D PUSH1 0x44 DUP3 ADD MSTORE PUSH1 0x65 PUSH1 0xF8 SHL PUSH1 0x64 DUP3 ADD MSTORE PUSH1 0x84 SWAP1 REVERT JUMPDEST CALLVALUE PUSH2 0x233 JUMPI PUSH1 0x40 CALLDATASIZE PUSH1 0x3 NOT ADD SLT PUSH2 0x233 JUMPI PUSH2 0x529 PUSH2 0x16A4 JUMP JUMPDEST PUSH1 0x24 CALLDATALOAD SWAP1 PUSH2 0x535 PUSH2 0x1D21 JUMP JUMPDEST PUSH1 0x5 SLOAD PUSH2 0x562 SWAP1 DUP4 SWAP1 PUSH1 0x1 PUSH1 0x1 PUSH1 0xA0 SHL SUB AND PUSH2 0x55B DUP3 PUSH2 0x554 DUP4 PUSH2 0x1ACA JUMP JUMPDEST LT ISZERO PUSH2 0x190F JUMP JUMPDEST ADDRESS SWAP1 PUSH2 0x1C5C JUMP JUMPDEST PUSH2 0x56E PUSH1 0xD SLOAD TIMESTAMP PUSH2 0x18B6 JUMP JUMPDEST PUSH1 0x14 DUP4 MUL SWAP1 DUP4 DUP3 DIV PUSH1 0x14 EQ DUP5 ISZERO OR ISZERO PUSH2 0x5DB JUMPI PUSH1 0x3 SWAP3 PUSH1 0x40 MLOAD SWAP5 PUSH2 0x591 DUP7 PUSH2 0x1778 JUMP JUMPDEST DUP6 MSTORE PUSH1 0x20 DUP6 ADD SWAP1 PUSH1 0x0 DUP3 MSTORE PUSH1 0x40 DUP7 ADD SWAP3 DUP4 MSTORE PUSH1 0x64 PUSH1 0x60 DUP8 ADD SWAP5 DIV DUP5 MSTORE PUSH1 0x1 DUP1 PUSH1 0xA0 SHL SUB AND PUSH1 0x0 MSTORE PUSH1 0xF PUSH1 0x20 MSTORE PUSH1 0x40 PUSH1 0x0 KECCAK256 SWAP5 MLOAD DUP6 SSTORE MLOAD PUSH1 0x1 DUP6 ADD SSTORE MLOAD PUSH1 0x2 DUP5 ADD SSTORE MLOAD SWAP2 ADD SSTORE PUSH1 0x0 DUP1 RETURN JUMPDEST PUSH4 0x4E487B71 PUSH1 0xE0 SHL PUSH1 0x0 MSTORE PUSH1 0x11 PUSH1 0x4 MSTORE PUSH1 0x24 PUSH1 0x0 REVERT JUMPDEST CALLVALUE PUSH2 0x233 JUMPI PUSH1 0x0 CALLDATASIZE PUSH1 0x3 NOT ADD SLT PUSH2 0x233 JUMPI PUSH1 0x20 PUSH1 0xE SLOAD PUSH1 0x40 MLOAD SWAP1 DUP2 MSTORE RETURN JUMPDEST CALLVALUE PUSH2 0x233 JUMPI PUSH1 0x40 CALLDATASIZE PUSH1 0x3 NOT ADD SLT PUSH2 0x233 JUMPI PUSH2 0x628 PUSH2 0x16A4 JUMP JUMPDEST PUSH1 0x1 PUSH1 0x1 PUSH1 0xA0 SHL SUB AND PUSH1 0x0 SWAP1 DUP2 MSTORE PUSH1 0x12 PUSH1 0x20 MSTORE PUSH1 0x40 SWAP1 KECCAK256 DUP1 SLOAD PUSH1 0x24 CALLDATALOAD SWAP2 SWAP1 DUP3 LT ISZERO PUSH2 0x233 JUMPI PUSH1 0x80 SWAP2 PUSH2 0x659 SWAP2 PUSH2 0x174F JUMP JUMPDEST POP DUP1 SLOAD SWAP1 PUSH2 0x689 PUSH1 0x1 DUP3 ADD SLOAD SWAP2 PUSH1 0x3 PUSH1 0xFF PUSH1 0x2 DUP4 ADD SLOAD AND SWAP2 ADD SLOAD SWAP3 PUSH1 0x40 MLOAD SWAP5 DUP6 MSTORE PUSH1 0x20 DUP6 ADD MSTORE PUSH1 0x40 DUP5 ADD SWAP1 PUSH2 0x176B JUMP JUMPDEST PUSH1 0x60 DUP3 ADD MSTORE RETURN JUMPDEST CALLVALUE PUSH2 0x233 JUMPI PUSH1 0x40 CALLDATASIZE PUSH1 0x3 NOT ADD SLT PUSH2 0x233 JUMPI PUSH2 0x6CA PUSH2 0x6AC PUSH2 0x16A4 JUMP JUMPDEST PUSH1 0x24 CALLDATALOAD SWAP1 PUSH2 0x6C4 DUP3 PUSH2 0x6BD CALLER PUSH2 0x1B2B JUMP JUMPDEST LT ISZERO PUSH2 0x186A JUMP JUMPDEST CALLER PUSH2 0x1C5C JUMP JUMPDEST PUSH1 0x20 PUSH1 0x40 MLOAD PUSH1 0x1 DUP2 MSTORE RETURN JUMPDEST CALLVALUE PUSH2 0x233 JUMPI PUSH2 0x6ED PUSH2 0x6E6 CALLDATASIZE PUSH2 0x16D0 JUMP JUMPDEST SWAP2 SWAP1 PUSH2 0x1708 JUMP JUMPDEST DUP1 SLOAD DUP3 LT ISZERO PUSH2 0x233 JUMPI PUSH1 0x20 SWAP2 PUSH2 0x702 SWAP2 PUSH2 0x1721 JUMP JUMPDEST SWAP1 SLOAD PUSH1 0x40 MLOAD PUSH1 0x3 SWAP3 SWAP1 SWAP3 SHL SHR PUSH1 0x1 PUSH1 0x1 PUSH1 0xA0 SHL SUB AND DUP2 MSTORE RETURN JUMPDEST CALLVALUE PUSH2 0x233 JUMPI PUSH1 0x20 CALLDATASIZE PUSH1 0x3 NOT ADD SLT PUSH2 0x233 JUMPI PUSH1 0x20 PUSH2 0x73E PUSH2 0x739 PUSH2 0x16A4 JUMP JUMPDEST PUSH2 0x1B2B JUMP JUMPDEST PUSH1 0x40 MLOAD SWAP1 DUP2 MSTORE RETURN JUMPDEST CALLVALUE PUSH2 0x233 JUMPI PUSH1 0x0 CALLDATASIZE PUSH1 0x3 NOT ADD SLT PUSH2 0x233 JUMPI PUSH1 0x40 MLOAD PUSH1 0x0 PUSH1 0x4 SLOAD DUP1 PUSH1 0x1 SHR SWAP1 PUSH1 0x1 DUP2 AND DUP1 ISZERO PUSH2 0x844 JUMPI JUMPDEST PUSH1 0x20 DUP4 LT DUP2 EQ PUSH2 0x830 JUMPI DUP3 DUP6 MSTORE SWAP1 DUP2 ISZERO PUSH2 0x80C JUMPI POP PUSH1 0x1 EQ PUSH2 0x7AC JUMPI JUMPDEST PUSH2 0x7A8 DUP4 PUSH2 0x79C DUP2 DUP6 SUB DUP3 PUSH2 0x1794 JUMP JUMPDEST PUSH1 0x40 MLOAD SWAP2 DUP3 SWAP2 DUP3 PUSH2 0x165B JUMP JUMPDEST SUB SWAP1 RETURN JUMPDEST SWAP2 SWAP1 POP PUSH1 0x4 PUSH1 0x0 MSTORE PUSH32 0x8A35ACFBC15FF81A39AE7D344FD709F28E8600B4AA8C65C6B64BFE7FE36BD19B SWAP2 PUSH1 0x0 SWAP1 JUMPDEST DUP1 DUP3 LT PUSH2 0x7F2 JUMPI POP SWAP1 SWAP2 POP DUP2 ADD PUSH1 0x20 ADD PUSH2 0x79C PUSH2 0x78C JUMP JUMPDEST SWAP2 SWAP3 PUSH1 0x1 DUP2 PUSH1 0x20 SWAP3 SLOAD DUP4 DUP6 DUP9 ADD ADD MSTORE ADD SWAP2 ADD SWAP1 SWAP3 SWAP2 PUSH2 0x7DA JUMP JUMPDEST PUSH1 0xFF NOT AND PUSH1 0x20 DUP1 DUP7 ADD SWAP2 SWAP1 SWAP2 MSTORE SWAP2 ISZERO ISZERO PUSH1 0x5 SHL DUP5 ADD SWAP1 SWAP2 ADD SWAP2 POP PUSH2 0x79C SWAP1 POP PUSH2 0x78C JUMP JUMPDEST PUSH4 0x4E487B71 PUSH1 0xE0 SHL DUP5 MSTORE PUSH1 0x22 PUSH1 0x4 MSTORE PUSH1 0x24 DUP5 REVERT JUMPDEST SWAP2 PUSH1 0x7F AND SWAP2 PUSH2 0x76F JUMP JUMPDEST CALLVALUE PUSH2 0x233 JUMPI PUSH1 0x20 CALLDATASIZE PUSH1 0x3 NOT ADD SLT PUSH2 0x233 JUMPI PUSH1 0x4 CALLDATALOAD PUSH1 0x7 DUP2 LT ISZERO PUSH2 0x233 JUMPI PUSH2 0x874 SWAP1 PUSH2 0x16EF JUMP JUMPDEST DUP1 SLOAD PUSH2 0x7A8 PUSH1 0x2 PUSH1 0x1 DUP5 ADD SLOAD SWAP4 ADD SLOAD PUSH1 0x40 MLOAD SWAP4 DUP5 SWAP4 DUP5 PUSH1 0x40 SWAP2 SWAP5 SWAP4 SWAP3 PUSH1 0x60 DUP3 ADD SWAP6 DUP3 MSTORE PUSH1 0x20 DUP3 ADD MSTORE ADD MSTORE JUMP JUMPDEST CALLVALUE PUSH2 0x233 JUMPI PUSH1 0x0 CALLDATASIZE PUSH1 0x3 NOT ADD SLT PUSH2 0x233 JUMPI PUSH1 0x5 SLOAD PUSH1 0x40 MLOAD PUSH1 0x1 PUSH1 0x1 PUSH1 0xA0 SHL SUB SWAP1 SWAP2 AND DUP2 MSTORE PUSH1 0x20 SWAP1 RETURN JUMPDEST CALLVALUE PUSH2 0x233 JUMPI PUSH1 0x0 CALLDATASIZE PUSH1 0x3 NOT ADD SLT PUSH2 0x233 JUMPI PUSH1 0x20 PUSH1 0x8 SLOAD PUSH1 0x40 MLOAD SWAP1 DUP2 MSTORE RETURN JUMPDEST CALLVALUE PUSH2 0x233 JUMPI PUSH1 0x0 CALLDATASIZE PUSH1 0x3 NOT ADD SLT PUSH2 0x233 JUMPI PUSH1 0x20 PUSH1 0xC SLOAD PUSH1 0x40 MLOAD SWAP1 DUP2 MSTORE RETURN JUMPDEST CALLVALUE PUSH2 0x233 JUMPI PUSH1 0x20 CALLDATASIZE PUSH1 0x3 NOT ADD SLT PUSH2 0x233 JUMPI PUSH1 0x4 CALLDATALOAD PUSH1 0x7 DUP2 LT DUP1 ISZERO PUSH2 0x233 JUMPI PUSH2 0x92B PUSH2 0x1D21 JUMP JUMPDEST PUSH1 0xFF PUSH1 0xA SLOAD AND PUSH2 0xAC6 JUMPI PUSH1 0x1 DUP3 EQ PUSH1 0x0 DUP2 PUSH2 0xA9A JUMPI JUMPDEST DUP2 ISZERO PUSH2 0xA70 JUMPI JUMPDEST DUP2 ISZERO PUSH2 0xA41 JUMPI JUMPDEST DUP2 ISZERO PUSH2 0xA12 JUMPI JUMPDEST DUP2 ISZERO PUSH2 0x9E4 JUMPI JUMPDEST POP ISZERO PUSH2 0x99F JUMPI ISZERO PUSH2 0x989 JUMPI PUSH2 0x982 PUSH1 0x1 SWAP2 PUSH1 0xFF NOT PUSH1 0x10 SLOAD AND PUSH1 0xFF DUP3 AND OR PUSH1 0x10 SSTORE PUSH2 0x16EF JUMP JUMPDEST ADD SLOAD PUSH1 0xC SSTORE STOP JUMPDEST PUSH4 0x4E487B71 PUSH1 0xE0 SHL PUSH1 0x0 MSTORE PUSH1 0x21 PUSH1 0x4 MSTORE PUSH1 0x24 PUSH1 0x0 REVERT JUMPDEST PUSH1 0x40 MLOAD PUSH3 0x461BCD PUSH1 0xE5 SHL DUP2 MSTORE PUSH1 0x20 PUSH1 0x4 DUP3 ADD MSTORE PUSH1 0x1E PUSH1 0x24 DUP3 ADD MSTORE PUSH32 0x496E76616C69642073616C65207068617365207472616E736974696F6E210000 PUSH1 0x44 DUP3 ADD MSTORE PUSH1 0x64 SWAP1 REVERT JUMPDEST SWAP1 POP PUSH2 0x989 JUMPI PUSH1 0x6 DUP3 EQ DUP1 PUSH2 0x9FA JUMPI JUMPDEST DUP4 PUSH2 0x95D JUMP JUMPDEST POP PUSH1 0xFF PUSH1 0x10 SLOAD AND PUSH1 0x7 DUP2 LT ISZERO PUSH2 0x989 JUMPI PUSH1 0x4 EQ PUSH2 0x9F4 JUMP JUMPDEST DUP1 SWAP2 POP PUSH2 0x989 JUMPI PUSH1 0x4 DUP4 EQ DUP1 PUSH2 0xA29 JUMPI JUMPDEST SWAP1 PUSH2 0x956 JUMP JUMPDEST POP PUSH1 0xFF PUSH1 0x10 SLOAD AND PUSH1 0x7 DUP2 LT ISZERO PUSH2 0x989 JUMPI PUSH1 0x3 EQ PUSH2 0xA23 JUMP JUMPDEST DUP1 SWAP2 POP PUSH2 0x989 JUMPI PUSH1 0x3 DUP4 EQ DUP1 PUSH2 0xA58 JUMPI JUMPDEST SWAP1 PUSH2 0x94F JUMP JUMPDEST POP PUSH1 0xFF PUSH1 0x10 SLOAD AND PUSH1 0x7 DUP2 LT ISZERO PUSH2 0x989 JUMPI PUSH1 0x2 EQ PUSH2 0xA52 JUMP JUMPDEST SWAP1 POP PUSH1 0x2 DUP4 EQ DUP1 PUSH2 0xA82 JUMPI JUMPDEST SWAP1 PUSH2 0x948 JUMP JUMPDEST POP PUSH1 0xFF PUSH1 0x10 SLOAD AND PUSH1 0x7 DUP2 LT ISZERO PUSH2 0x989 JUMPI PUSH1 0x1 EQ PUSH2 0xA7C JUMP JUMPDEST SWAP1 POP PUSH1 0xFF PUSH1 0x10 SLOAD AND PUSH1 0x7 DUP2 LT ISZERO PUSH2 0xAB2 JUMPI ISZERO SWAP1 PUSH2 0x941 JUMP JUMPDEST PUSH4 0x4E487B71 PUSH1 0xE0 SHL DUP3 MSTORE PUSH1 0x21 PUSH1 0x4 MSTORE PUSH1 0x24 DUP3 REVERT JUMPDEST PUSH1 0x40 MLOAD PUSH3 0x461BCD PUSH1 0xE5 SHL DUP2 MSTORE PUSH1 0x20 PUSH1 0x4 DUP3 ADD MSTORE PUSH1 0x27 PUSH1 0x24 DUP3 ADD MSTORE PUSH32 0x43616E6E6F74206368616E6765207068617365207768696C652049434F206973 PUSH1 0x44 DUP3 ADD MSTORE PUSH7 0x81C185D5CD959 PUSH1 0xCA SHL PUSH1 0x64 DUP3 ADD MSTORE PUSH1 0x84 SWAP1 REVERT JUMPDEST CALLVALUE PUSH2 0x233 JUMPI PUSH2 0xB29 CALLDATASIZE PUSH2 0x16D0 JUMP JUMPDEST PUSH2 0xB31 PUSH2 0x1D21 JUMP JUMPDEST PUSH2 0xB3A DUP3 PUSH2 0x16EF JUMP JUMPDEST SLOAD ISZERO PUSH2 0xC21 JUMPI DUP1 PUSH1 0x2 PUSH2 0xB4C DUP5 PUSH2 0x16EF JUMP JUMPDEST ADD SSTORE PUSH2 0xB57 DUP3 PUSH2 0x1708 JUMP JUMPDEST PUSH1 0x0 SWAP2 JUMPDEST DUP2 SLOAD DUP4 LT ISZERO PUSH2 0x31D JUMPI PUSH2 0xB6E DUP4 DUP4 PUSH2 0x1721 JUMP JUMPDEST PUSH1 0x1 DUP1 PUSH1 0xA0 SHL SUB SWAP2 SLOAD SWAP1 PUSH1 0x3 SHL SHR AND PUSH1 0x0 MSTORE PUSH1 0x12 PUSH1 0x20 MSTORE PUSH1 0x40 PUSH1 0x0 KECCAK256 SWAP2 PUSH1 0x0 JUMPDEST DUP4 SLOAD DUP2 LT ISZERO PUSH2 0xC13 JUMPI PUSH2 0xBA1 DUP2 DUP6 PUSH2 0x174F JUMP JUMPDEST POP SLOAD ISZERO ISZERO DUP1 PUSH2 0xBE5 JUMPI JUMPDEST SWAP1 PUSH1 0x1 SWAP2 PUSH2 0xBBA JUMPI JUMPDEST ADD PUSH2 0xB8E JUMP JUMPDEST PUSH2 0xBD1 DUP5 DUP4 PUSH2 0xBC9 DUP5 DUP10 PUSH2 0x174F JUMP JUMPDEST POP ADD SLOAD PUSH2 0x18B6 JUMP JUMPDEST PUSH1 0x3 PUSH2 0xBDD DUP4 DUP9 PUSH2 0x174F JUMP JUMPDEST POP ADD SSTORE PUSH2 0xBB4 JUMP JUMPDEST POP PUSH1 0xFF PUSH1 0x2 PUSH2 0xBF4 DUP4 DUP8 PUSH2 0x174F JUMP JUMPDEST POP ADD SLOAD AND SWAP1 PUSH1 0x7 DUP8 LT ISZERO PUSH2 0x989 JUMPI PUSH1 0x7 DUP3 LT ISZERO PUSH2 0x989 JUMPI SWAP1 DUP7 EQ PUSH2 0xBAB JUMP JUMPDEST POP PUSH1 0x1 SWAP1 SWAP4 ADD SWAP3 SWAP2 POP PUSH2 0xB5B JUMP JUMPDEST PUSH1 0x40 MLOAD PUSH3 0x461BCD PUSH1 0xE5 SHL DUP2 MSTORE PUSH1 0x20 PUSH1 0x4 DUP3 ADD MSTORE PUSH1 0x12 PUSH1 0x24 DUP3 ADD MSTORE PUSH18 0x496E76616C69642073616C65207068617365 PUSH1 0x70 SHL PUSH1 0x44 DUP3 ADD MSTORE PUSH1 0x64 SWAP1 REVERT JUMPDEST CALLVALUE PUSH2 0x233 JUMPI PUSH1 0x40 CALLDATASIZE PUSH1 0x3 NOT ADD SLT PUSH2 0x233 JUMPI PUSH2 0x31D PUSH2 0xC77 PUSH2 0x16A4 JUMP JUMPDEST PUSH1 0x24 CALLDATALOAD SWAP1 PUSH2 0xC86 DUP3 CALLER DUP4 PUSH2 0x1DCB JUMP JUMPDEST PUSH2 0x1D4A JUMP JUMPDEST CALLVALUE PUSH2 0x233 JUMPI PUSH1 0x0 CALLDATASIZE PUSH1 0x3 NOT ADD SLT PUSH2 0x233 JUMPI PUSH2 0xCA4 PUSH2 0x1D21 JUMP JUMPDEST PUSH1 0x5 DUP1 SLOAD PUSH1 0x1 PUSH1 0x1 PUSH1 0xA0 SHL SUB NOT DUP2 AND SWAP1 SWAP2 SSTORE PUSH1 0x0 SWAP1 PUSH1 0x1 PUSH1 0x1 PUSH1 0xA0 SHL SUB AND PUSH32 0x8BE0079C531659141344CD1FD0A4F28419497F9722A3DAAFE3B4186F6B6457E0 DUP3 DUP1 LOG3 STOP JUMPDEST CALLVALUE PUSH2 0x233 JUMPI PUSH1 0x20 CALLDATASIZE PUSH1 0x3 NOT ADD SLT PUSH2 0x233 JUMPI PUSH1 0x20 PUSH2 0x73E PUSH2 0xD06 PUSH2 0x16A4 JUMP JUMPDEST PUSH2 0x1ACA JUMP JUMPDEST CALLVALUE PUSH2 0x233 JUMPI PUSH1 0x20 CALLDATASIZE PUSH1 0x3 NOT ADD SLT PUSH2 0x233 JUMPI PUSH1 0x20 PUSH2 0x73E PUSH2 0xD29 PUSH2 0x16A4 JUMP JUMPDEST PUSH2 0x1A7C JUMP JUMPDEST CALLVALUE PUSH2 0x233 JUMPI PUSH1 0x0 CALLDATASIZE PUSH1 0x3 NOT ADD SLT PUSH2 0x233 JUMPI PUSH2 0xD47 PUSH2 0x1D21 JUMP JUMPDEST PUSH1 0xA SLOAD PUSH1 0xFF DUP1 DUP3 AND ISZERO AND DUP1 SWAP2 PUSH1 0xFF NOT AND OR PUSH1 0xA SSTORE PUSH2 0xD61 JUMPI STOP JUMPDEST PUSH1 0x10 DUP1 SLOAD PUSH1 0xFF NOT AND PUSH1 0x5 OR SWAP1 SSTORE STOP JUMPDEST CALLVALUE PUSH2 0x233 JUMPI PUSH1 0x0 CALLDATASIZE PUSH1 0x3 NOT ADD SLT PUSH2 0x233 JUMPI PUSH1 0x20 PUSH1 0xB SLOAD PUSH1 0x40 MLOAD SWAP1 DUP2 MSTORE RETURN JUMPDEST CALLVALUE PUSH2 0x233 JUMPI PUSH1 0x0 CALLDATASIZE PUSH1 0x3 NOT ADD SLT PUSH2 0x233 JUMPI CALLER PUSH1 0x0 MSTORE PUSH1 0x12 PUSH1 0x20 MSTORE PUSH1 0x40 PUSH1 0x0 KECCAK256 PUSH1 0x0 SWAP1 PUSH1 0x0 JUMPDEST DUP2 SLOAD DUP2 LT ISZERO PUSH2 0xE24 JUMPI PUSH2 0xDC6 DUP2 DUP4 PUSH2 0x174F JUMP JUMPDEST POP SLOAD ISZERO ISZERO DUP1 PUSH2 0xE0C JUMPI JUMPDEST PUSH2 0xDDD JUMPI JUMPDEST PUSH1 0x1 ADD PUSH2 0xDB3 JUMP JUMPDEST SWAP2 PUSH2 0xDF6 PUSH1 0x1 SWAP2 PUSH2 0xDEE DUP6 DUP6 PUSH2 0x174F JUMP JUMPDEST POP SLOAD SWAP1 PUSH2 0x18B6 JUMP JUMPDEST SWAP3 PUSH1 0x0 PUSH2 0xE03 DUP3 DUP6 PUSH2 0x174F JUMP JUMPDEST POP SSTORE SWAP1 POP PUSH2 0xDD5 JUMP JUMPDEST POP PUSH1 0x3 PUSH2 0xE19 DUP3 DUP5 PUSH2 0x174F JUMP JUMPDEST POP ADD SLOAD TIMESTAMP LT ISZERO PUSH2 0xDD0 JUMP JUMPDEST DUP3 DUP1 ISZERO PUSH2 0xE59 JUMPI PUSH1 0x40 MLOAD SWAP1 DUP2 MSTORE PUSH32 0x896E034966EAAF1ADC54ACC0F257056FEBBD300C9E47182CF761982CF1F5E430 PUSH1 0x20 CALLER SWAP3 LOG2 STOP JUMPDEST PUSH1 0x40 MLOAD PUSH3 0x461BCD PUSH1 0xE5 SHL DUP2 MSTORE PUSH1 0x20 PUSH1 0x4 DUP3 ADD MSTORE PUSH1 0x1B PUSH1 0x24 DUP3 ADD MSTORE PUSH32 0x4E6F20756E6C6F636B656420746F6B656E7320746F20636C61696D0000000000 PUSH1 0x44 DUP3 ADD MSTORE PUSH1 0x64 SWAP1 REVERT JUMPDEST CALLVALUE PUSH2 0x233 JUMPI PUSH1 0x20 CALLDATASIZE PUSH1 0x3 NOT ADD SLT PUSH2 0x233 JUMPI PUSH2 0x31D PUSH1 0x4 CALLDATALOAD CALLER PUSH2 0x1D4A JUMP JUMPDEST CALLVALUE PUSH2 0x233 JUMPI PUSH1 0x20 CALLDATASIZE PUSH1 0x3 NOT ADD SLT PUSH2 0x233 JUMPI PUSH1 0x4 CALLDATALOAD PUSH2 0xED7 PUSH2 0x1D21 JUMP JUMPDEST TIMESTAMP DUP2 GT ISZERO PUSH2 0xEE4 JUMPI PUSH1 0x8 SSTORE STOP JUMPDEST PUSH1 0x64 PUSH1 0x40 MLOAD PUSH3 0x461BCD PUSH1 0xE5 SHL DUP2 MSTORE PUSH1 0x20 PUSH1 0x4 DUP3 ADD MSTORE PUSH1 0x20 PUSH1 0x24 DUP3 ADD MSTORE PUSH32 0x53746172742074696D65206D75737420626520696E2074686520667574757265 PUSH1 0x44 DUP3 ADD MSTORE REVERT JUMPDEST CALLVALUE PUSH2 0x233 JUMPI PUSH1 0x0 CALLDATASIZE PUSH1 0x3 NOT ADD SLT PUSH2 0x233 JUMPI PUSH2 0x7A8 PUSH2 0x79C PUSH2 0x195B JUMP JUMPDEST CALLVALUE PUSH2 0x233 JUMPI PUSH1 0x0 CALLDATASIZE PUSH1 0x3 NOT ADD SLT PUSH2 0x233 JUMPI PUSH1 0x20 PUSH1 0x40 MLOAD PUSH1 0x12 DUP2 MSTORE RETURN JUMPDEST CALLVALUE PUSH2 0x233 JUMPI PUSH1 0x0 CALLDATASIZE PUSH1 0x3 NOT ADD SLT PUSH2 0x233 JUMPI PUSH1 0x7 SLOAD PUSH1 0x40 MLOAD PUSH1 0x1 PUSH1 0x1 PUSH1 0xA0 SHL SUB SWAP1 SWAP2 AND DUP2 MSTORE PUSH1 0x20 SWAP1 RETURN JUMPDEST PUSH1 0x20 CALLDATASIZE PUSH1 0x3 NOT ADD SLT PUSH2 0x233 JUMPI PUSH1 0x4 CALLDATALOAD PUSH1 0x8 SLOAD TIMESTAMP LT ISZERO DUP1 PUSH2 0x141F JUMPI JUMPDEST ISZERO PUSH2 0x13E6 JUMPI PUSH1 0x2 PUSH1 0x6 SLOAD EQ PUSH2 0x13D5 JUMPI PUSH1 0x2 PUSH1 0x6 SSTORE PUSH1 0xFF PUSH1 0x10 SLOAD AND PUSH1 0x7 DUP2 LT ISZERO DUP1 PUSH2 0x989 JUMPI DUP2 ISZERO ISZERO SWAP1 DUP2 PUSH2 0x13C7 JUMPI JUMPDEST DUP2 PUSH2 0x13B6 JUMPI JUMPDEST POP ISZERO PUSH2 0x137A JUMPI PUSH2 0xFE7 SWAP1 PUSH2 0x16EF JUMP JUMPDEST SWAP1 PUSH2 0xFF6 PUSH1 0x2 DUP4 ADD SLOAD TIMESTAMP PUSH2 0x18B6 JUMP JUMPDEST CALLVALUE ISZERO SWAP1 DUP2 PUSH2 0x1231 JUMPI PUSH1 0x1 DUP5 ADD SLOAD PUSH8 0xDE0B6B3A7640000 CALLVALUE MUL SWAP1 CALLVALUE DUP3 DIV PUSH8 0xDE0B6B3A7640000 EQ DUP5 OR ISZERO PUSH2 0x5DB JUMPI PUSH1 0x0 DUP1 PUSH2 0x1033 DUP2 SWAP5 SWAP4 DUP3 SWAP5 PUSH2 0x17C3 JUMP JUMPDEST SWAP6 PUSH2 0x1041 DUP8 DUP11 SLOAD LT ISZERO PUSH2 0x18C3 JUMP JUMPDEST PUSH1 0x1 DUP1 PUSH1 0xA0 SHL SUB PUSH1 0x5 SLOAD AND DUP3 SWAP2 PUSH2 0x1227 JUMPI JUMPDEST CALLVALUE SWAP2 CALL ISZERO PUSH2 0x121B JUMPI JUMPDEST PUSH1 0x5 SLOAD PUSH2 0x1077 SWAP1 DUP4 SWAP1 PUSH2 0x554 SWAP1 PUSH1 0x1 PUSH1 0x1 PUSH1 0xA0 SHL SUB AND PUSH2 0x1ACA JUMP JUMPDEST CALLER PUSH1 0x0 MSTORE PUSH1 0x12 PUSH1 0x20 MSTORE PUSH1 0x40 PUSH1 0x0 KECCAK256 SWAP3 PUSH1 0xFF PUSH1 0x10 SLOAD AND PUSH1 0x40 MLOAD SWAP1 PUSH2 0x1099 DUP3 PUSH2 0x1778 JUMP JUMPDEST DUP5 DUP3 MSTORE PUSH1 0x20 DUP3 ADD TIMESTAMP DUP2 MSTORE PUSH2 0x10B1 PUSH1 0x40 DUP5 ADD SWAP3 DUP4 PUSH2 0x194F JUMP JUMPDEST PUSH1 0x60 DUP4 ADD SWAP7 DUP6 DUP9 MSTORE DUP1 SLOAD PUSH1 0x1 PUSH1 0x40 SHL DUP2 LT ISZERO PUSH2 0x1205 JUMPI PUSH2 0x10D6 SWAP2 PUSH1 0x1 DUP3 ADD DUP2 SSTORE PUSH2 0x174F JUMP JUMPDEST SWAP4 SWAP1 SWAP4 PUSH2 0x11EF JUMPI MLOAD DUP4 SSTORE MLOAD PUSH1 0x1 DUP4 ADD SSTORE PUSH1 0x2 DUP3 ADD SWAP1 MLOAD SWAP6 PUSH1 0x7 DUP8 LT ISZERO PUSH2 0x989 JUMPI PUSH1 0x3 SWAP2 PUSH1 0x0 SWAP8 PUSH1 0xFF DUP1 NOT DUP4 SLOAD AND SWAP2 AND OR SWAP1 SSTORE MLOAD SWAP2 ADD SSTORE PUSH2 0x111A PUSH1 0xFF PUSH1 0x10 SLOAD AND PUSH2 0x1708 JUMP JUMPDEST SWAP5 DUP6 SLOAD SWAP6 PUSH1 0x1 PUSH1 0x40 SHL DUP8 LT ISZERO PUSH2 0x11DB JUMPI DUP7 PUSH2 0x115D SWAP2 PUSH1 0x1 PUSH32 0x884543C08D36FB5C9B3B688DD0453C9F287199124BDBDDB3B7F9CA885A4D34A0 SWAP8 SWAP9 SWAP10 ADD DUP2 SSTORE PUSH2 0x1721 JUMP JUMPDEST DUP2 SLOAD SWAP1 PUSH1 0x3 SHL SWAP1 CALLER DUP3 SHL SWAP2 PUSH1 0x1 DUP1 PUSH1 0xA0 SHL SUB SWAP1 SHL NOT AND OR SWAP1 SSTORE PUSH2 0x1182 DUP6 PUSH1 0xB SLOAD PUSH2 0x18B6 JUMP JUMPDEST PUSH1 0xB SSTORE PUSH2 0x1190 DUP6 DUP3 SLOAD PUSH2 0x17B6 JUMP JUMPDEST SWAP1 SSTORE PUSH1 0x5 SLOAD PUSH2 0x11AB SWAP1 DUP6 SWAP1 CALLER SWAP1 PUSH1 0x1 PUSH1 0x1 PUSH1 0xA0 SHL SUB AND PUSH2 0x1C5C JUMP JUMPDEST DUP1 ISZERO PUSH2 0x11D3 JUMPI SWAP3 JUMPDEST PUSH1 0x40 DUP1 MLOAD SWAP5 DUP6 MSTORE PUSH1 0x20 DUP6 ADD SWAP2 SWAP1 SWAP2 MSTORE DUP4 ADD MSTORE CALLER SWAP2 PUSH1 0x60 SWAP1 LOG2 PUSH1 0x1 PUSH1 0x6 SSTORE DUP1 RETURN JUMPDEST POP CALLVALUE SWAP3 PUSH2 0x11B3 JUMP JUMPDEST PUSH4 0x4E487B71 PUSH1 0xE0 SHL DUP7 MSTORE PUSH1 0x41 PUSH1 0x4 MSTORE PUSH1 0x24 DUP7 REVERT JUMPDEST PUSH4 0x4E487B71 PUSH1 0xE0 SHL PUSH1 0x0 MSTORE PUSH1 0x0 PUSH1 0x4 MSTORE PUSH1 0x24 PUSH1 0x0 REVERT JUMPDEST PUSH4 0x4E487B71 PUSH1 0xE0 SHL PUSH1 0x0 MSTORE PUSH1 0x41 PUSH1 0x4 MSTORE PUSH1 0x24 PUSH1 0x0 REVERT JUMPDEST PUSH1 0x40 MLOAD RETURNDATASIZE PUSH1 0x0 DUP3 RETURNDATACOPY RETURNDATASIZE SWAP1 REVERT JUMPDEST PUSH2 0x8FC SWAP2 POP PUSH2 0x1053 JUMP JUMPDEST SWAP1 POP DUP2 ISZERO PUSH2 0x133F JUMPI PUSH8 0xDE0B6B3A7640000 DUP3 MUL DUP3 DUP2 DIV PUSH8 0xDE0B6B3A7640000 SUB PUSH2 0x5DB JUMPI PUSH1 0x1 DUP5 ADD SLOAD PUSH2 0x1263 SWAP2 PUSH2 0x17C3 JUMP JUMPDEST SWAP1 PUSH2 0x1271 DUP3 DUP6 SLOAD LT ISZERO PUSH2 0x18C3 JUMP JUMPDEST PUSH1 0x7 SLOAD PUSH1 0x40 MLOAD PUSH4 0x23B872DD PUSH1 0xE0 SHL DUP2 MSTORE CALLER PUSH1 0x4 DUP3 ADD MSTORE ADDRESS PUSH1 0x24 DUP3 ADD MSTORE PUSH1 0x44 DUP2 ADD DUP6 SWAP1 MSTORE SWAP1 PUSH1 0x20 SWAP1 DUP3 SWAP1 PUSH1 0x64 SWAP1 DUP3 SWAP1 PUSH1 0x0 SWAP1 PUSH1 0x1 PUSH1 0x1 PUSH1 0xA0 SHL SUB AND GAS CALL SWAP1 DUP2 ISZERO PUSH2 0x121B JUMPI PUSH1 0x0 SWAP2 PUSH2 0x12FD JUMPI JUMPDEST POP PUSH2 0x105C JUMPI PUSH1 0x40 MLOAD PUSH3 0x461BCD PUSH1 0xE5 SHL DUP2 MSTORE PUSH1 0x20 PUSH1 0x4 DUP3 ADD MSTORE PUSH1 0x14 PUSH1 0x24 DUP3 ADD MSTORE PUSH20 0x1554D115081D1C985B9CD9995C8819985A5B1959 PUSH1 0x62 SHL PUSH1 0x44 DUP3 ADD MSTORE PUSH1 0x64 SWAP1 REVERT JUMPDEST PUSH1 0x20 DUP2 RETURNDATASIZE PUSH1 0x20 GT PUSH2 0x1337 JUMPI JUMPDEST DUP2 PUSH2 0x1316 PUSH1 0x20 SWAP4 DUP4 PUSH2 0x1794 JUMP JUMPDEST DUP2 ADD SUB SLT PUSH2 0x1333 JUMPI MLOAD SWAP1 DUP2 ISZERO ISZERO DUP3 SUB PUSH2 0x1330 JUMPI POP DUP6 PUSH2 0x12BC JUMP JUMPDEST DUP1 REVERT JUMPDEST POP DUP1 REVERT JUMPDEST RETURNDATASIZE SWAP2 POP PUSH2 0x1309 JUMP JUMPDEST PUSH1 0x40 MLOAD PUSH3 0x461BCD PUSH1 0xE5 SHL DUP2 MSTORE PUSH1 0x20 PUSH1 0x4 DUP3 ADD MSTORE PUSH1 0x13 PUSH1 0x24 DUP3 ADD MSTORE PUSH19 0x125B9D985B1A59081554D11508185B5BDD5B9D PUSH1 0x6A SHL PUSH1 0x44 DUP3 ADD MSTORE PUSH1 0x64 SWAP1 REVERT JUMPDEST PUSH1 0x40 MLOAD PUSH3 0x461BCD PUSH1 0xE5 SHL DUP2 MSTORE PUSH1 0x20 PUSH1 0x4 DUP3 ADD MSTORE PUSH1 0x14 PUSH1 0x24 DUP3 ADD MSTORE PUSH20 0x4E6F206163746976652073616C65207068617365 PUSH1 0x60 SHL PUSH1 0x44 DUP3 ADD MSTORE PUSH1 0x64 SWAP1 REVERT JUMPDEST SWAP1 POP PUSH2 0x989 JUMPI PUSH1 0x6 DUP2 EQ ISZERO DUP4 PUSH2 0xFD8 JUMP JUMPDEST POP POP PUSH1 0x5 DUP2 EQ ISZERO PUSH1 0x0 PUSH2 0xFD2 JUMP JUMPDEST PUSH4 0x3EE5AEB5 PUSH1 0xE0 SHL PUSH1 0x0 MSTORE PUSH1 0x4 PUSH1 0x0 REVERT JUMPDEST PUSH1 0x40 MLOAD PUSH3 0x461BCD PUSH1 0xE5 SHL DUP2 MSTORE PUSH1 0x20 PUSH1 0x4 DUP3 ADD MSTORE PUSH1 0x11 PUSH1 0x24 DUP3 ADD MSTORE PUSH17 0x49434F206973206E6F7420616374697665 PUSH1 0x78 SHL PUSH1 0x44 DUP3 ADD MSTORE PUSH1 0x64 SWAP1 REVERT JUMPDEST POP PUSH1 0x9 SLOAD TIMESTAMP GT ISZERO PUSH2 0xFA4 JUMP JUMPDEST CALLVALUE PUSH2 0x233 JUMPI PUSH1 0x60 CALLDATASIZE PUSH1 0x3 NOT ADD SLT PUSH2 0x233 JUMPI PUSH2 0x6CA PUSH2 0x1447 PUSH2 0x16A4 JUMP JUMPDEST PUSH2 0x144F PUSH2 0x16BA JUMP JUMPDEST PUSH1 0x44 CALLDATALOAD SWAP2 PUSH2 0x1460 DUP4 PUSH2 0x6BD DUP4 PUSH2 0x1B2B JUMP JUMPDEST PUSH2 0x146B DUP4 CALLER DUP4 PUSH2 0x1DCB JUMP JUMPDEST PUSH2 0x1C5C JUMP JUMPDEST CALLVALUE PUSH2 0x233 JUMPI PUSH1 0x20 CALLDATASIZE PUSH1 0x3 NOT ADD SLT PUSH2 0x233 JUMPI PUSH1 0x20 PUSH2 0x73E PUSH2 0x148E PUSH2 0x16A4 JUMP JUMPDEST PUSH2 0x17F6 JUMP JUMPDEST CALLVALUE PUSH2 0x233 JUMPI PUSH1 0x0 CALLDATASIZE PUSH1 0x3 NOT ADD SLT PUSH2 0x233 JUMPI PUSH1 0x20 PUSH1 0x2 SLOAD PUSH1 0x40 MLOAD SWAP1 DUP2 MSTORE RETURN JUMPDEST CALLVALUE PUSH2 0x233 JUMPI PUSH1 0x40 CALLDATASIZE PUSH1 0x3 NOT ADD SLT PUSH2 0x233 JUMPI PUSH2 0x14CA PUSH2 0x16A4 JUMP JUMPDEST PUSH1 0x24 CALLDATALOAD SWAP1 CALLER ISZERO PUSH2 0x154D JUMPI PUSH1 0x1 PUSH1 0x1 PUSH1 0xA0 SHL SUB AND SWAP1 DUP2 ISZERO PUSH2 0x1537 JUMPI CALLER PUSH1 0x0 MSTORE PUSH1 0x1 PUSH1 0x20 MSTORE PUSH1 0x40 PUSH1 0x0 KECCAK256 DUP3 PUSH1 0x0 MSTORE PUSH1 0x20 MSTORE DUP1 PUSH1 0x40 PUSH1 0x0 KECCAK256 SSTORE PUSH1 0x40 MLOAD SWAP1 DUP2 MSTORE PUSH32 0x8C5BE1E5EBEC7D5BD14F71427D1E84F3DD0314C0F7B2291E5B200AC8C7C3B925 PUSH1 0x20 CALLER SWAP3 LOG3 PUSH1 0x20 PUSH1 0x40 MLOAD PUSH1 0x1 DUP2 MSTORE RETURN JUMPDEST PUSH4 0x4A1406B1 PUSH1 0xE1 SHL PUSH1 0x0 MSTORE PUSH1 0x0 PUSH1 0x4 MSTORE PUSH1 0x24 PUSH1 0x0 REVERT JUMPDEST PUSH4 0xE602DF05 PUSH1 0xE0 SHL PUSH1 0x0 MSTORE PUSH1 0x0 PUSH1 0x4 MSTORE PUSH1 0x24 PUSH1 0x0 REVERT JUMPDEST CALLVALUE PUSH2 0x233 JUMPI PUSH1 0x0 CALLDATASIZE PUSH1 0x3 NOT ADD SLT PUSH2 0x233 JUMPI PUSH1 0x40 MLOAD PUSH1 0x0 PUSH1 0x3 SLOAD DUP1 PUSH1 0x1 SHR SWAP1 PUSH1 0x1 DUP2 AND DUP1 ISZERO PUSH2 0x1618 JUMPI JUMPDEST PUSH1 0x20 DUP4 LT DUP2 EQ PUSH2 0x830 JUMPI DUP3 DUP6 MSTORE SWAP1 DUP2 ISZERO PUSH2 0x80C JUMPI POP PUSH1 0x1 EQ PUSH2 0x15B8 JUMPI PUSH2 0x7A8 DUP4 PUSH2 0x79C DUP2 DUP6 SUB DUP3 PUSH2 0x1794 JUMP JUMPDEST SWAP2 SWAP1 POP PUSH1 0x3 PUSH1 0x0 MSTORE PUSH32 0xC2575A0E9E593C00F959F8C92F12DB2869C3395A3B0502D05E2516446F71F85B SWAP2 PUSH1 0x0 SWAP1 JUMPDEST DUP1 DUP3 LT PUSH2 0x15FE JUMPI POP SWAP1 SWAP2 POP DUP2 ADD PUSH1 0x20 ADD PUSH2 0x79C PUSH2 0x78C JUMP JUMPDEST SWAP2 SWAP3 PUSH1 0x1 DUP2 PUSH1 0x20 SWAP3 SLOAD DUP4 DUP6 DUP9 ADD ADD MSTORE ADD SWAP2 ADD SWAP1 SWAP3 SWAP2 PUSH2 0x15E6 JUMP JUMPDEST SWAP2 PUSH1 0x7F AND SWAP2 PUSH2 0x158C JUMP JUMPDEST CALLVALUE PUSH2 0x233 JUMPI PUSH1 0x0 CALLDATASIZE PUSH1 0x3 NOT ADD SLT PUSH2 0x233 JUMPI PUSH1 0x20 PUSH1 0x9 SLOAD PUSH1 0x40 MLOAD SWAP1 DUP2 MSTORE RETURN JUMPDEST CALLVALUE PUSH2 0x233 JUMPI PUSH1 0x0 CALLDATASIZE PUSH1 0x3 NOT ADD SLT PUSH2 0x233 JUMPI PUSH1 0x20 SWAP1 PUSH1 0xD SLOAD DUP2 MSTORE RETURN JUMPDEST SWAP2 SWAP1 SWAP2 PUSH1 0x20 DUP2 MSTORE DUP3 MLOAD DUP1 PUSH1 0x20 DUP4 ADD MSTORE PUSH1 0x0 JUMPDEST DUP2 DUP2 LT PUSH2 0x168E JUMPI POP PUSH1 0x40 SWAP3 SWAP4 POP PUSH1 0x0 DUP4 DUP3 DUP5 ADD ADD MSTORE PUSH1 0x1F DUP1 NOT SWAP2 ADD AND ADD ADD SWAP1 JUMP JUMPDEST DUP1 PUSH1 0x20 DUP1 SWAP3 DUP8 ADD ADD MLOAD PUSH1 0x40 DUP3 DUP7 ADD ADD MSTORE ADD PUSH2 0x166D JUMP JUMPDEST PUSH1 0x4 CALLDATALOAD SWAP1 PUSH1 0x1 PUSH1 0x1 PUSH1 0xA0 SHL SUB DUP3 AND DUP3 SUB PUSH2 0x233 JUMPI JUMP JUMPDEST PUSH1 0x24 CALLDATALOAD SWAP1 PUSH1 0x1 PUSH1 0x1 PUSH1 0xA0 SHL SUB DUP3 AND DUP3 SUB PUSH2 0x233 JUMPI JUMP JUMPDEST PUSH1 0x40 SWAP1 PUSH1 0x3 NOT ADD SLT PUSH2 0x233 JUMPI PUSH1 0x4 CALLDATALOAD PUSH1 0x7 DUP2 LT ISZERO PUSH2 0x233 JUMPI SWAP1 PUSH1 0x24 CALLDATALOAD SWAP1 JUMP JUMPDEST PUSH1 0x7 DUP2 LT ISZERO PUSH2 0x989 JUMPI PUSH1 0x0 MSTORE PUSH1 0x11 PUSH1 0x20 MSTORE PUSH1 0x40 PUSH1 0x0 KECCAK256 SWAP1 JUMP JUMPDEST PUSH1 0x7 DUP2 LT ISZERO PUSH2 0x989 JUMPI PUSH1 0x0 MSTORE PUSH1 0x13 PUSH1 0x20 MSTORE PUSH1 0x40 PUSH1 0x0 KECCAK256 SWAP1 JUMP JUMPDEST DUP1 SLOAD DUP3 LT ISZERO PUSH2 0x1739 JUMPI PUSH1 0x0 MSTORE PUSH1 0x20 PUSH1 0x0 KECCAK256 ADD SWAP1 PUSH1 0x0 SWAP1 JUMP JUMPDEST PUSH4 0x4E487B71 PUSH1 0xE0 SHL PUSH1 0x0 MSTORE PUSH1 0x32 PUSH1 0x4 MSTORE PUSH1 0x24 PUSH1 0x0 REVERT JUMPDEST DUP1 SLOAD DUP3 LT ISZERO PUSH2 0x1739 JUMPI PUSH1 0x0 MSTORE PUSH1 0x20 PUSH1 0x0 KECCAK256 SWAP1 PUSH1 0x2 SHL ADD SWAP1 PUSH1 0x0 SWAP1 JUMP JUMPDEST SWAP1 PUSH1 0x7 DUP3 LT ISZERO PUSH2 0x989 JUMPI MSTORE JUMP JUMPDEST PUSH1 0x80 DUP2 ADD SWAP1 DUP2 LT PUSH8 0xFFFFFFFFFFFFFFFF DUP3 GT OR PUSH2 0x1205 JUMPI PUSH1 0x40 MSTORE JUMP JUMPDEST SWAP1 PUSH1 0x1F DUP1 NOT SWAP2 ADD AND DUP2 ADD SWAP1 DUP2 LT PUSH8 0xFFFFFFFFFFFFFFFF DUP3 GT OR PUSH2 0x1205 JUMPI PUSH1 0x40 MSTORE JUMP JUMPDEST SWAP2 SWAP1 DUP3 SUB SWAP2 DUP3 GT PUSH2 0x5DB JUMPI JUMP JUMPDEST DUP2 ISZERO PUSH2 0x17CD JUMPI DIV SWAP1 JUMP JUMPDEST PUSH4 0x4E487B71 PUSH1 0xE0 SHL PUSH1 0x0 MSTORE PUSH1 0x12 PUSH1 0x4 MSTORE PUSH1 0x24 PUSH1 0x0 REVERT JUMPDEST DUP2 DUP2 MUL SWAP3 SWAP2 DUP2 ISZERO SWAP2 DUP5 DIV EQ OR ISZERO PUSH2 0x5DB JUMPI JUMP JUMPDEST PUSH1 0x1 PUSH1 0x1 PUSH1 0xA0 SHL SUB AND PUSH1 0x0 SWAP1 DUP2 MSTORE PUSH1 0xF PUSH1 0x20 MSTORE PUSH1 0x40 SWAP1 KECCAK256 PUSH1 0x2 DUP2 ADD SLOAD SWAP1 TIMESTAMP DUP3 GT PUSH2 0x1863 JUMPI PUSH2 0x1841 PUSH2 0x1836 PUSH2 0x182D PUSH2 0x1857 SWAP5 TIMESTAMP PUSH2 0x17B6 JUMP JUMPDEST PUSH1 0xE SLOAD SWAP1 PUSH2 0x17C3 JUMP JUMPDEST PUSH1 0x3 DUP4 ADD SLOAD SWAP1 PUSH2 0x17E3 JUMP JUMPDEST SWAP1 DUP1 SLOAD DUP1 DUP4 GT PUSH2 0x185A JUMPI JUMPDEST POP PUSH1 0x1 ADD SLOAD SWAP1 PUSH2 0x17B6 JUMP JUMPDEST SWAP1 JUMP JUMPDEST SWAP2 POP PUSH1 0x1 PUSH2 0x184C JUMP JUMPDEST POP POP PUSH1 0x0 SWAP1 JUMP JUMPDEST ISZERO PUSH2 0x1871 JUMPI JUMP JUMPDEST PUSH1 0x40 MLOAD PUSH3 0x461BCD PUSH1 0xE5 SHL DUP2 MSTORE PUSH1 0x20 PUSH1 0x4 DUP3 ADD MSTORE PUSH1 0x1D PUSH1 0x24 DUP3 ADD MSTORE PUSH32 0x496E73756666696369656E7420756E6C6F636B65642062616C616E6365000000 PUSH1 0x44 DUP3 ADD MSTORE PUSH1 0x64 SWAP1 REVERT JUMPDEST SWAP2 SWAP1 DUP3 ADD DUP1 SWAP3 GT PUSH2 0x5DB JUMPI JUMP JUMPDEST ISZERO PUSH2 0x18CA JUMPI JUMP JUMPDEST PUSH1 0x40 MLOAD PUSH3 0x461BCD PUSH1 0xE5 SHL DUP2 MSTORE PUSH1 0x20 PUSH1 0x4 DUP3 ADD MSTORE PUSH1 0x1D PUSH1 0x24 DUP3 ADD MSTORE PUSH32 0x496E73756666696369656E7420616C6C6F636174656420746F6B656E73000000 PUSH1 0x44 DUP3 ADD MSTORE PUSH1 0x64 SWAP1 REVERT JUMPDEST ISZERO PUSH2 0x1916 JUMPI JUMP JUMPDEST PUSH1 0x40 MLOAD PUSH3 0x461BCD PUSH1 0xE5 SHL DUP2 MSTORE PUSH1 0x20 PUSH1 0x4 DUP3 ADD MSTORE PUSH1 0x11 PUSH1 0x24 DUP3 ADD MSTORE PUSH17 0x4E6F7420656E6F75676820746F6B656E73 PUSH1 0x78 SHL PUSH1 0x44 DUP3 ADD MSTORE PUSH1 0x64 SWAP1 REVERT JUMPDEST PUSH1 0x7 DUP3 LT ISZERO PUSH2 0x989 JUMPI MSTORE JUMP JUMPDEST PUSH1 0xFF PUSH1 0xA SLOAD AND PUSH2 0x1A41 JUMPI PUSH1 0x8 SLOAD DUP1 ISZERO DUP1 ISZERO PUSH2 0x1A37 JUMPI JUMPDEST PUSH2 0x1A28 JUMPI TIMESTAMP LT ISZERO DUP1 PUSH2 0x1A1C JUMPI JUMPDEST PUSH2 0x19F1 JUMPI PUSH1 0x9 SLOAD TIMESTAMP GT PUSH2 0x19C6 JUMPI PUSH1 0x40 MLOAD PUSH2 0x1999 PUSH1 0x40 DUP3 PUSH2 0x1794 JUMP JUMPDEST PUSH1 0x17 DUP2 MSTORE PUSH32 0x49434F20686173206E6F74207374617274656420796574000000000000000000 PUSH1 0x20 DUP3 ADD MSTORE SWAP1 JUMP JUMPDEST PUSH1 0x40 MLOAD PUSH2 0x19D4 PUSH1 0x40 DUP3 PUSH2 0x1794 JUMP JUMPDEST PUSH1 0xD DUP2 MSTORE PUSH13 0x1250D3C81A185CC8195B991959 PUSH1 0x9A SHL PUSH1 0x20 DUP3 ADD MSTORE SWAP1 JUMP JUMPDEST PUSH1 0x40 MLOAD PUSH2 0x19FF PUSH1 0x40 DUP3 PUSH2 0x1794 JUMP JUMPDEST PUSH1 0xD DUP2 MSTORE PUSH13 0x49434F20697320616374697665 PUSH1 0x98 SHL PUSH1 0x20 DUP3 ADD MSTORE SWAP1 JUMP JUMPDEST POP PUSH1 0x9 SLOAD TIMESTAMP GT ISZERO PUSH2 0x197E JUMP JUMPDEST POP PUSH1 0x40 MLOAD PUSH2 0x1999 PUSH1 0x40 DUP3 PUSH2 0x1794 JUMP JUMPDEST POP PUSH1 0x9 SLOAD ISZERO PUSH2 0x1971 JUMP JUMPDEST PUSH1 0x40 MLOAD PUSH2 0x1A4F PUSH1 0x40 DUP3 PUSH2 0x1794 JUMP JUMPDEST PUSH1 0x1F DUP2 MSTORE PUSH32 0x49434F206973206D616E75616C6C7920706175736564206279206F776E657200 PUSH1 0x20 DUP3 ADD MSTORE SWAP1 JUMP JUMPDEST PUSH1 0x1 PUSH1 0x1 PUSH1 0xA0 SHL SUB AND PUSH1 0x0 SWAP1 DUP2 MSTORE PUSH1 0xF PUSH1 0x20 MSTORE PUSH1 0x40 SWAP1 KECCAK256 PUSH1 0x2 DUP2 ADD SLOAD TIMESTAMP DUP2 GT PUSH2 0x1AC5 JUMPI SWAP1 PUSH2 0x1AB3 PUSH2 0x1836 PUSH2 0x182D PUSH2 0x1857 SWAP5 TIMESTAMP PUSH2 0x17B6 JUMP JUMPDEST SWAP1 SLOAD DUP1 DUP3 GT ISZERO PUSH2 0x17B6 JUMPI SWAP1 POP DUP1 PUSH2 0x17B6 JUMP JUMPDEST POP SLOAD SWAP1 JUMP JUMPDEST PUSH1 0x1 PUSH1 0x1 PUSH1 0xA0 SHL SUB AND PUSH1 0x0 SWAP1 DUP2 MSTORE PUSH1 0x20 DUP2 DUP2 MSTORE PUSH1 0x40 DUP1 DUP4 KECCAK256 SLOAD PUSH1 0xF SWAP1 SWAP3 MSTORE DUP3 KECCAK256 DUP1 SLOAD PUSH2 0x1857 SWAP4 SWAP3 SWAP2 DUP2 PUSH2 0x1AFF JUMPI JUMPDEST POP POP PUSH2 0x18B6 JUMP JUMPDEST PUSH2 0x1B0F SWAP3 SWAP4 POP PUSH1 0x1 ADD SLOAD SWAP1 PUSH2 0x17B6 JUMP JUMPDEST SWAP1 CODESIZE DUP1 PUSH2 0x1AF8 JUMP JUMPDEST DUP1 MLOAD DUP3 LT ISZERO PUSH2 0x1739 JUMPI PUSH1 0x20 SWAP2 PUSH1 0x5 SHL ADD ADD SWAP1 JUMP JUMPDEST PUSH1 0x1 PUSH1 0x1 PUSH1 0xA0 SHL SUB DUP2 AND PUSH1 0x0 SWAP1 DUP2 MSTORE PUSH1 0x12 PUSH1 0x20 MSTORE PUSH1 0x40 DUP2 KECCAK256 DUP1 SLOAD SWAP1 SWAP4 SWAP1 PUSH8 0xFFFFFFFFFFFFFFFF DUP2 GT PUSH2 0x1C48 JUMPI PUSH1 0x40 MLOAD SWAP5 PUSH2 0x1B6B PUSH1 0x20 DUP4 PUSH1 0x5 SHL ADD DUP8 PUSH2 0x1794 JUMP JUMPDEST DUP2 DUP7 MSTORE DUP4 MSTORE PUSH1 0x20 DUP1 DUP5 KECCAK256 DUP5 SWAP2 DUP8 ADD JUMPDEST DUP4 DUP4 LT PUSH2 0x1BFD JUMPI POP POP POP POP DUP2 JUMPDEST DUP5 MLOAD DUP2 LT ISZERO PUSH2 0x1BE9 JUMPI PUSH2 0x1B9A DUP2 DUP7 PUSH2 0x1B17 JUMP JUMPDEST MLOAD MLOAD ISZERO ISZERO DUP1 PUSH2 0x1BD2 JUMPI JUMPDEST PUSH2 0x1BB1 JUMPI JUMPDEST PUSH1 0x1 ADD PUSH2 0x1B87 JUMP JUMPDEST SWAP2 PUSH2 0x1BCA PUSH1 0x1 SWAP2 PUSH2 0x1BC2 DUP6 DUP9 PUSH2 0x1B17 JUMP JUMPDEST MLOAD MLOAD SWAP1 PUSH2 0x18B6 JUMP JUMPDEST SWAP3 SWAP1 POP PUSH2 0x1BA9 JUMP JUMPDEST POP PUSH1 0x60 PUSH2 0x1BDF DUP3 DUP8 PUSH2 0x1B17 JUMP JUMPDEST MLOAD ADD MLOAD TIMESTAMP LT PUSH2 0x1BA4 JUMP JUMPDEST POP SWAP3 POP PUSH2 0x1BF8 PUSH2 0x1857 SWAP3 PUSH2 0x1ACA JUMP JUMPDEST PUSH2 0x17B6 JUMP JUMPDEST PUSH1 0x4 PUSH1 0x20 PUSH1 0x1 SWAP3 PUSH1 0x40 MLOAD PUSH2 0x1C10 DUP2 PUSH2 0x1778 JUMP JUMPDEST DUP6 SLOAD DUP2 MSTORE DUP5 DUP7 ADD SLOAD DUP4 DUP3 ADD MSTORE PUSH2 0x1C30 PUSH1 0xFF PUSH1 0x2 DUP9 ADD SLOAD AND PUSH1 0x40 DUP4 ADD PUSH2 0x194F JUMP JUMPDEST PUSH1 0x3 DUP7 ADD SLOAD PUSH1 0x60 DUP3 ADD MSTORE DUP2 MSTORE ADD SWAP3 ADD SWAP3 ADD SWAP2 SWAP1 PUSH2 0x1B7A JUMP JUMPDEST PUSH4 0x4E487B71 PUSH1 0xE0 SHL DUP4 MSTORE PUSH1 0x41 PUSH1 0x4 MSTORE PUSH1 0x24 DUP4 REVERT JUMPDEST PUSH1 0x1 PUSH1 0x1 PUSH1 0xA0 SHL SUB AND SWAP1 DUP2 ISZERO PUSH2 0x1D0B JUMPI PUSH1 0x1 PUSH1 0x1 PUSH1 0xA0 SHL SUB AND SWAP2 DUP3 ISZERO PUSH2 0x1CF5 JUMPI PUSH1 0x0 DUP3 DUP2 MSTORE DUP1 PUSH1 0x20 MSTORE PUSH1 0x40 DUP2 KECCAK256 SLOAD DUP3 DUP2 LT PUSH2 0x1CDB JUMPI SWAP2 PUSH1 0x40 DUP3 DUP3 PUSH32 0xDDF252AD1BE2C89B69C2B068FC378DAA952BA7F163C4A11628F55A4DF523B3EF SWAP6 DUP8 PUSH1 0x20 SWAP7 MSTORE DUP3 DUP7 MSTORE SUB DUP3 DUP3 KECCAK256 SSTORE DUP7 DUP2 MSTORE DUP1 DUP5 MSTORE KECCAK256 DUP2 DUP2 SLOAD ADD SWAP1 SSTORE PUSH1 0x40 MLOAD SWAP1 DUP2 MSTORE LOG3 JUMP JUMPDEST SWAP2 PUSH1 0x64 SWAP3 DUP5 PUSH4 0x391434E3 PUSH1 0xE2 SHL DUP5 MSTORE PUSH1 0x4 MSTORE PUSH1 0x24 MSTORE PUSH1 0x44 MSTORE REVERT JUMPDEST PUSH4 0xEC442F05 PUSH1 0xE0 SHL PUSH1 0x0 MSTORE PUSH1 0x0 PUSH1 0x4 MSTORE PUSH1 0x24 PUSH1 0x0 REVERT JUMPDEST PUSH4 0x4B637E8F PUSH1 0xE1 SHL PUSH1 0x0 MSTORE PUSH1 0x0 PUSH1 0x4 MSTORE PUSH1 0x24 PUSH1 0x0 REVERT JUMPDEST PUSH1 0x5 SLOAD PUSH1 0x1 PUSH1 0x1 PUSH1 0xA0 SHL SUB AND CALLER SUB PUSH2 0x1D35 JUMPI JUMP JUMPDEST PUSH4 0x118CDAA7 PUSH1 0xE0 SHL PUSH1 0x0 MSTORE CALLER PUSH1 0x4 MSTORE PUSH1 0x24 PUSH1 0x0 REVERT JUMPDEST PUSH1 0x1 PUSH1 0x1 PUSH1 0xA0 SHL SUB AND DUP1 ISZERO PUSH2 0x1D0B JUMPI PUSH1 0x0 SWAP2 DUP2 DUP4 MSTORE DUP3 PUSH1 0x20 MSTORE PUSH1 0x40 DUP4 KECCAK256 SLOAD DUP2 DUP2 LT PUSH2 0x1DB2 JUMPI DUP2 PUSH32 0xDDF252AD1BE2C89B69C2B068FC378DAA952BA7F163C4A11628F55A4DF523B3EF SWAP3 PUSH1 0x20 SWAP3 DUP6 DUP8 MSTORE DUP7 DUP5 MSTORE SUB PUSH1 0x40 DUP7 KECCAK256 SSTORE DUP1 PUSH1 0x2 SLOAD SUB PUSH1 0x2 SSTORE PUSH1 0x40 MLOAD SWAP1 DUP2 MSTORE LOG3 JUMP JUMPDEST PUSH1 0x64 SWAP4 SWAP3 PUSH4 0x391434E3 PUSH1 0xE2 SHL DUP5 MSTORE PUSH1 0x4 MSTORE PUSH1 0x24 MSTORE PUSH1 0x44 MSTORE REVERT JUMPDEST PUSH1 0x1 PUSH1 0x1 PUSH1 0xA0 SHL SUB SWAP1 DUP2 AND PUSH1 0x0 DUP2 DUP2 MSTORE PUSH1 0x1 PUSH1 0x20 SWAP1 DUP2 MSTORE PUSH1 0x40 DUP1 DUP4 KECCAK256 SWAP5 DUP7 AND DUP4 MSTORE SWAP4 SWAP1 MSTORE SWAP2 SWAP1 SWAP2 KECCAK256 SLOAD SWAP3 SWAP2 SWAP1 PUSH1 0x0 NOT DUP5 LT PUSH2 0x1E07 JUMPI JUMPDEST POP POP POP POP JUMP JUMPDEST DUP3 DUP5 LT PUSH2 0x1E51 JUMPI DUP1 ISZERO PUSH2 0x154D JUMPI PUSH1 0x1 PUSH1 0x1 PUSH1 0xA0 SHL SUB DUP3 AND ISZERO PUSH2 0x1537 JUMPI PUSH1 0x0 MSTORE PUSH1 0x1 PUSH1 0x20 MSTORE PUSH1 0x40 PUSH1 0x0 KECCAK256 SWAP1 PUSH1 0x1 DUP1 PUSH1 0xA0 SHL SUB AND PUSH1 0x0 MSTORE PUSH1 0x20 MSTORE PUSH1 0x40 PUSH1 0x0 KECCAK256 SWAP2 SUB SWAP1 SSTORE CODESIZE DUP1 DUP1 DUP1 PUSH2 0x1E01 JUMP JUMPDEST POP DUP3 SWAP1 PUSH4 0x7DC7A0D9 PUSH1 0xE1 SHL PUSH1 0x0 MSTORE PUSH1 0x1 DUP1 PUSH1 0xA0 SHL SUB AND PUSH1 0x4 MSTORE PUSH1 0x24 MSTORE PUSH1 0x44 MSTORE PUSH1 0x64 PUSH1 0x0 REVERT INVALID LOG1 PUSH5 0x736F6C6343 STOP ADDMOD SHR STOP EXP "
        },
        "methodIdentifiers": {
          "Pause()": "6985a022",
          "allowance(address,address)": "dd62ed3e",
          "approve(address,uint256)": "095ea7b3",
          "availableBalance(address)": "a0821be3",
          "balanceOf(address)": "70a08231",
          "burn(uint256)": "42966c68",
          "burnFrom(address,uint256)": "79cc6790",
          "buyToken(uint256)": "2d296bf1",
          "checkStatus()": "3b7104f2",
          "claimTokens()": "48c54b9d",
          "claimVestedTokens()": "e74f3fbb",
          "decimals()": "313ce567",
          "getLockedTokens(address)": "6b2d95d4",
          "getUnlockedTokens(address)": "1f803ac3",
          "icoEnd()": "0563451a",
          "icoStart()": "827037db",
          "lockDuration()": "04554443",
          "lockingBalances(address,uint256)": "ae3218bc",
          "manualPause()": "cd94b54b",
          "name()": "06fdde03",
          "owner()": "8da5cb5b",
          "phaseBuyers(uint8,uint256)": "a0ce9433",
          "renounceOwnership()": "715018a6",
          "salePhase()": "e4f2487a",
          "salePhases(uint8)": "8e58e76e",
          "setEndTime(uint256)": "ccb98ffc",
          "setLockingPeriod(uint8,uint256)": "79fbe635",
          "setSalePhase(uint8)": "7ad59431",
          "setStartTime(uint256)": "3e0a322d",
          "soldTokens()": "5ed9ebfc",
          "symbol()": "95d89b41",
          "tokenPrice()": "7ff9b596",
          "totalSupply()": "18160ddd",
          "transfer(address,uint256)": "a9059cbb",
          "transferFrom(address,address,uint256)": "23b872dd",
          "transferOwnership(address)": "f2fde38b",
          "transferWithLock(address,uint256)": "bfdc33a8",
          "usdt()": "2f48ab7d",
          "vestingInterval()": "b8e50cab",
          "vestingSchedules(address)": "fdb20ccb"
        }
      }
    }
  }
}