{
  "_format": "hh-sol-artifact-1",
  "contractName": "ChainSphereTokenICO",
  "sourceName": "contracts/ICO.sol",
  "abi": [
    {
      "inputs": [
        {
          "internalType": "address",
          "name": "_usdtERC20",
          "type": "address"
        },
        {
          "internalType": "address",
          "name": "_usdtBEP20",
          "type": "address"
        }
      ],
      "stateMutability": "nonpayable",
      "type": "constructor"
    },
    {
      "inputs": [
        {
          "internalType": "address",
          "name": "spender",
          "type": "address"
        },
        {
          "internalType": "uint256",
          "name": "allowance",
          "type": "uint256"
        },
        {
          "internalType": "uint256",
          "name": "needed",
          "type": "uint256"
        }
      ],
      "name": "ERC20InsufficientAllowance",
      "type": "error"
    },
    {
      "inputs": [
        {
          "internalType": "address",
          "name": "sender",
          "type": "address"
        },
        {
          "internalType": "uint256",
          "name": "balance",
          "type": "uint256"
        },
        {
          "internalType": "uint256",
          "name": "needed",
          "type": "uint256"
        }
      ],
      "name": "ERC20InsufficientBalance",
      "type": "error"
    },
    {
      "inputs": [
        {
          "internalType": "address",
          "name": "approver",
          "type": "address"
        }
      ],
      "name": "ERC20InvalidApprover",
      "type": "error"
    },
    {
      "inputs": [
        {
          "internalType": "address",
          "name": "receiver",
          "type": "address"
        }
      ],
      "name": "ERC20InvalidReceiver",
      "type": "error"
    },
    {
      "inputs": [
        {
          "internalType": "address",
          "name": "sender",
          "type": "address"
        }
      ],
      "name": "ERC20InvalidSender",
      "type": "error"
    },
    {
      "inputs": [
        {
          "internalType": "address",
          "name": "spender",
          "type": "address"
        }
      ],
      "name": "ERC20InvalidSpender",
      "type": "error"
    },
    {
      "inputs": [
        {
          "internalType": "address",
          "name": "owner",
          "type": "address"
        }
      ],
      "name": "OwnableInvalidOwner",
      "type": "error"
    },
    {
      "inputs": [
        {
          "internalType": "address",
          "name": "account",
          "type": "address"
        }
      ],
      "name": "OwnableUnauthorizedAccount",
      "type": "error"
    },
    {
      "inputs": [],
      "name": "ReentrancyGuardReentrantCall",
      "type": "error"
    },
    {
      "inputs": [
        {
          "internalType": "address",
          "name": "token",
          "type": "address"
        }
      ],
      "name": "SafeERC20FailedOperation",
      "type": "error"
    },
    {
      "anonymous": false,
      "inputs": [
        {
          "indexed": true,
          "internalType": "address",
          "name": "owner",
          "type": "address"
        },
        {
          "indexed": true,
          "internalType": "address",
          "name": "spender",
          "type": "address"
        },
        {
          "indexed": false,
          "internalType": "uint256",
          "name": "value",
          "type": "uint256"
        }
      ],
      "name": "Approval",
      "type": "event"
    },
    {
      "anonymous": false,
      "inputs": [
        {
          "indexed": true,
          "internalType": "address",
          "name": "previousOwner",
          "type": "address"
        },
        {
          "indexed": true,
          "internalType": "address",
          "name": "newOwner",
          "type": "address"
        }
      ],
      "name": "OwnershipTransferred",
      "type": "event"
    },
    {
      "anonymous": false,
      "inputs": [
        {
          "indexed": true,
          "internalType": "address",
          "name": "buyer",
          "type": "address"
        },
        {
          "indexed": false,
          "internalType": "uint256",
          "name": "usdtAmount",
          "type": "uint256"
        },
        {
          "indexed": false,
          "internalType": "uint256",
          "name": "tokenAmount",
          "type": "uint256"
        },
        {
          "indexed": false,
          "internalType": "uint256",
          "name": "unlockTime",
          "type": "uint256"
        }
      ],
      "name": "TokenBought",
      "type": "event"
    },
    {
      "anonymous": false,
      "inputs": [
        {
          "indexed": true,
          "internalType": "address",
          "name": "buyer",
          "type": "address"
        },
        {
          "indexed": false,
          "internalType": "uint256",
          "name": "amount",
          "type": "uint256"
        }
      ],
      "name": "TokensClaimed",
      "type": "event"
    },
    {
      "anonymous": false,
      "inputs": [
        {
          "indexed": true,
          "internalType": "address",
          "name": "from",
          "type": "address"
        },
        {
          "indexed": true,
          "internalType": "address",
          "name": "to",
          "type": "address"
        },
        {
          "indexed": false,
          "internalType": "uint256",
          "name": "value",
          "type": "uint256"
        }
      ],
      "name": "Transfer",
      "type": "event"
    },
    {
      "inputs": [],
      "name": "PauseResume",
      "outputs": [],
      "stateMutability": "nonpayable",
      "type": "function"
    },
    {
      "inputs": [
        {
          "internalType": "address",
          "name": "recipient_",
          "type": "address"
        },
        {
          "internalType": "uint256",
          "name": "amount_",
          "type": "uint256"
        },
        {
          "internalType": "uint256",
          "name": "lockTime_",
          "type": "uint256"
        }
      ],
      "name": "TransferRewards",
      "outputs": [],
      "stateMutability": "nonpayable",
      "type": "function"
    },
    {
      "inputs": [],
      "name": "Withdraw",
      "outputs": [],
      "stateMutability": "nonpayable",
      "type": "function"
    },
    {
      "inputs": [
        {
          "internalType": "address",
          "name": "owner",
          "type": "address"
        },
        {
          "internalType": "address",
          "name": "spender",
          "type": "address"
        }
      ],
      "name": "allowance",
      "outputs": [
        {
          "internalType": "uint256",
          "name": "",
          "type": "uint256"
        }
      ],
      "stateMutability": "view",
      "type": "function"
    },
    {
      "inputs": [
        {
          "internalType": "address",
          "name": "spender",
          "type": "address"
        },
        {
          "internalType": "uint256",
          "name": "value",
          "type": "uint256"
        }
      ],
      "name": "approve",
      "outputs": [
        {
          "internalType": "bool",
          "name": "",
          "type": "bool"
        }
      ],
      "stateMutability": "nonpayable",
      "type": "function"
    },
    {
      "inputs": [
        {
          "internalType": "address",
          "name": "account",
          "type": "address"
        }
      ],
      "name": "availableBalance",
      "outputs": [
        {
          "internalType": "uint256",
          "name": "",
          "type": "uint256"
        }
      ],
      "stateMutability": "view",
      "type": "function"
    },
    {
      "inputs": [
        {
          "internalType": "address",
          "name": "account",
          "type": "address"
        }
      ],
      "name": "balanceOf",
      "outputs": [
        {
          "internalType": "uint256",
          "name": "",
          "type": "uint256"
        }
      ],
      "stateMutability": "view",
      "type": "function"
    },
    {
      "inputs": [
        {
          "internalType": "uint256",
          "name": "value",
          "type": "uint256"
        }
      ],
      "name": "burn",
      "outputs": [],
      "stateMutability": "nonpayable",
      "type": "function"
    },
    {
      "inputs": [
        {
          "internalType": "address",
          "name": "account",
          "type": "address"
        },
        {
          "internalType": "uint256",
          "name": "value",
          "type": "uint256"
        }
      ],
      "name": "burnFrom",
      "outputs": [],
      "stateMutability": "nonpayable",
      "type": "function"
    },
    {
      "inputs": [
        {
          "internalType": "uint256",
          "name": "usdtAmount",
          "type": "uint256"
        },
        {
          "internalType": "uint256",
          "name": "bnbPrice_",
          "type": "uint256"
        },
        {
          "internalType": "enum ChainSphereTokenICO.TokenStandard",
          "name": "tokenStandard",
          "type": "uint8"
        }
      ],
      "name": "buyToken",
      "outputs": [],
      "stateMutability": "payable",
      "type": "function"
    },
    {
      "inputs": [],
      "name": "checkStatus",
      "outputs": [
        {
          "internalType": "string",
          "name": "",
          "type": "string"
        }
      ],
      "stateMutability": "view",
      "type": "function"
    },
    {
      "inputs": [],
      "name": "claimTokens",
      "outputs": [],
      "stateMutability": "nonpayable",
      "type": "function"
    },
    {
      "inputs": [],
      "name": "claimVestedTokens",
      "outputs": [],
      "stateMutability": "nonpayable",
      "type": "function"
    },
    {
      "inputs": [],
      "name": "decimals",
      "outputs": [
        {
          "internalType": "uint8",
          "name": "",
          "type": "uint8"
        }
      ],
      "stateMutability": "view",
      "type": "function"
    },
    {
      "inputs": [],
      "name": "getBNBbalance",
      "outputs": [
        {
          "internalType": "uint256",
          "name": "",
          "type": "uint256"
        }
      ],
      "stateMutability": "view",
      "type": "function"
    },
    {
      "inputs": [
        {
          "internalType": "address",
          "name": "user",
          "type": "address"
        }
      ],
      "name": "getLockedTokens",
      "outputs": [
        {
          "internalType": "uint256",
          "name": "",
          "type": "uint256"
        }
      ],
      "stateMutability": "view",
      "type": "function"
    },
    {
      "inputs": [],
      "name": "getUSDTbalance",
      "outputs": [
        {
          "internalType": "uint256",
          "name": "",
          "type": "uint256"
        }
      ],
      "stateMutability": "view",
      "type": "function"
    },
    {
      "inputs": [
        {
          "internalType": "address",
          "name": "user",
          "type": "address"
        }
      ],
      "name": "getUnlockedTokens",
      "outputs": [
        {
          "internalType": "uint256",
          "name": "",
          "type": "uint256"
        }
      ],
      "stateMutability": "view",
      "type": "function"
    },
    {
      "inputs": [],
      "name": "icoEnd",
      "outputs": [
        {
          "internalType": "uint256",
          "name": "",
          "type": "uint256"
        }
      ],
      "stateMutability": "view",
      "type": "function"
    },
    {
      "inputs": [],
      "name": "icoStart",
      "outputs": [
        {
          "internalType": "uint256",
          "name": "",
          "type": "uint256"
        }
      ],
      "stateMutability": "view",
      "type": "function"
    },
    {
      "inputs": [],
      "name": "lockDuration",
      "outputs": [
        {
          "internalType": "uint256",
          "name": "",
          "type": "uint256"
        }
      ],
      "stateMutability": "view",
      "type": "function"
    },
    {
      "inputs": [
        {
          "internalType": "address",
          "name": "",
          "type": "address"
        },
        {
          "internalType": "uint256",
          "name": "",
          "type": "uint256"
        }
      ],
      "name": "lockingBalances",
      "outputs": [
        {
          "internalType": "uint256",
          "name": "amount",
          "type": "uint256"
        },
        {
          "internalType": "uint256",
          "name": "purchaseTime",
          "type": "uint256"
        },
        {
          "internalType": "enum ChainSphereTokenICO.SalePhase",
          "name": "phase",
          "type": "uint8"
        },
        {
          "internalType": "uint256",
          "name": "unlockTime",
          "type": "uint256"
        }
      ],
      "stateMutability": "view",
      "type": "function"
    },
    {
      "inputs": [],
      "name": "manualPause",
      "outputs": [
        {
          "internalType": "bool",
          "name": "",
          "type": "bool"
        }
      ],
      "stateMutability": "view",
      "type": "function"
    },
    {
      "inputs": [],
      "name": "name",
      "outputs": [
        {
          "internalType": "string",
          "name": "",
          "type": "string"
        }
      ],
      "stateMutability": "view",
      "type": "function"
    },
    {
      "inputs": [],
      "name": "owner",
      "outputs": [
        {
          "internalType": "address",
          "name": "",
          "type": "address"
        }
      ],
      "stateMutability": "view",
      "type": "function"
    },
    {
      "inputs": [
        {
          "internalType": "enum ChainSphereTokenICO.SalePhase",
          "name": "",
          "type": "uint8"
        },
        {
          "internalType": "uint256",
          "name": "",
          "type": "uint256"
        }
      ],
      "name": "phaseBuyers",
      "outputs": [
        {
          "internalType": "address",
          "name": "",
          "type": "address"
        }
      ],
      "stateMutability": "view",
      "type": "function"
    },
    {
      "inputs": [],
      "name": "renounceOwnership",
      "outputs": [],
      "stateMutability": "nonpayable",
      "type": "function"
    },
    {
      "inputs": [],
      "name": "salePhase",
      "outputs": [
        {
          "internalType": "enum ChainSphereTokenICO.SalePhase",
          "name": "",
          "type": "uint8"
        }
      ],
      "stateMutability": "view",
      "type": "function"
    },
    {
      "inputs": [
        {
          "internalType": "enum ChainSphereTokenICO.SalePhase",
          "name": "",
          "type": "uint8"
        }
      ],
      "name": "salePhases",
      "outputs": [
        {
          "internalType": "uint256",
          "name": "allocatedSupply",
          "type": "uint256"
        },
        {
          "internalType": "uint256",
          "name": "price",
          "type": "uint256"
        },
        {
          "internalType": "uint256",
          "name": "lockingPeriod",
          "type": "uint256"
        }
      ],
      "stateMutability": "view",
      "type": "function"
    },
    {
      "inputs": [
        {
          "internalType": "address",
          "name": "_usdtBEP20",
          "type": "address"
        }
      ],
      "name": "setBEP20USDT",
      "outputs": [],
      "stateMutability": "nonpayable",
      "type": "function"
    },
    {
      "inputs": [
        {
          "internalType": "address",
          "name": "_usdtERC20",
          "type": "address"
        }
      ],
      "name": "setERC20USDT",
      "outputs": [],
      "stateMutability": "nonpayable",
      "type": "function"
    },
    {
      "inputs": [
        {
          "internalType": "uint256",
          "name": "endTime_",
          "type": "uint256"
        }
      ],
      "name": "setEndTime",
      "outputs": [],
      "stateMutability": "nonpayable",
      "type": "function"
    },
    {
      "inputs": [
        {
          "internalType": "enum ChainSphereTokenICO.SalePhase",
          "name": "phase",
          "type": "uint8"
        },
        {
          "internalType": "uint256",
          "name": "period",
          "type": "uint256"
        }
      ],
      "name": "setLockingPeriod",
      "outputs": [],
      "stateMutability": "nonpayable",
      "type": "function"
    },
    {
      "inputs": [
        {
          "internalType": "enum ChainSphereTokenICO.SalePhase",
          "name": "phase",
          "type": "uint8"
        }
      ],
      "name": "setSalePhase",
      "outputs": [],
      "stateMutability": "nonpayable",
      "type": "function"
    },
    {
      "inputs": [
        {
          "internalType": "uint256",
          "name": "startTime_",
          "type": "uint256"
        }
      ],
      "name": "setStartTime",
      "outputs": [],
      "stateMutability": "nonpayable",
      "type": "function"
    },
    {
      "inputs": [],
      "name": "soldTokens",
      "outputs": [
        {
          "internalType": "uint256",
          "name": "",
          "type": "uint256"
        }
      ],
      "stateMutability": "view",
      "type": "function"
    },
    {
      "inputs": [],
      "name": "symbol",
      "outputs": [
        {
          "internalType": "string",
          "name": "",
          "type": "string"
        }
      ],
      "stateMutability": "view",
      "type": "function"
    },
    {
      "inputs": [],
      "name": "tokenPrice",
      "outputs": [
        {
          "internalType": "uint256",
          "name": "",
          "type": "uint256"
        }
      ],
      "stateMutability": "view",
      "type": "function"
    },
    {
      "inputs": [],
      "name": "totalSupply",
      "outputs": [
        {
          "internalType": "uint256",
          "name": "",
          "type": "uint256"
        }
      ],
      "stateMutability": "view",
      "type": "function"
    },
    {
      "inputs": [
        {
          "internalType": "address",
          "name": "recipient",
          "type": "address"
        },
        {
          "internalType": "uint256",
          "name": "amount",
          "type": "uint256"
        }
      ],
      "name": "transfer",
      "outputs": [
        {
          "internalType": "bool",
          "name": "",
          "type": "bool"
        }
      ],
      "stateMutability": "nonpayable",
      "type": "function"
    },
    {
      "inputs": [
        {
          "internalType": "address",
          "name": "sender",
          "type": "address"
        },
        {
          "internalType": "address",
          "name": "recipient",
          "type": "address"
        },
        {
          "internalType": "uint256",
          "name": "amount",
          "type": "uint256"
        }
      ],
      "name": "transferFrom",
      "outputs": [
        {
          "internalType": "bool",
          "name": "",
          "type": "bool"
        }
      ],
      "stateMutability": "nonpayable",
      "type": "function"
    },
    {
      "inputs": [
        {
          "internalType": "address",
          "name": "newOwner",
          "type": "address"
        }
      ],
      "name": "transferOwnership",
      "outputs": [],
      "stateMutability": "nonpayable",
      "type": "function"
    },
    {
      "inputs": [
        {
          "internalType": "address",
          "name": "recipient",
          "type": "address"
        },
        {
          "internalType": "uint256",
          "name": "amount",
          "type": "uint256"
        }
      ],
      "name": "transferWithLock",
      "outputs": [],
      "stateMutability": "nonpayable",
      "type": "function"
    },
    {
      "inputs": [],
      "name": "usdtBEP20",
      "outputs": [
        {
          "internalType": "contract IERC20",
          "name": "",
          "type": "address"
        }
      ],
      "stateMutability": "view",
      "type": "function"
    },
    {
      "inputs": [],
      "name": "usdtERC20",
      "outputs": [
        {
          "internalType": "contract IERC20",
          "name": "",
          "type": "address"
        }
      ],
      "stateMutability": "view",
      "type": "function"
    },
    {
      "inputs": [
        {
          "internalType": "address",
          "name": "",
          "type": "address"
        }
      ],
      "name": "userDetails",
      "outputs": [
        {
          "internalType": "uint256",
          "name": "saleType",
          "type": "uint256"
        },
        {
          "internalType": "uint256",
          "name": "totalTokens",
          "type": "uint256"
        }
      ],
      "stateMutability": "view",
      "type": "function"
    },
    {
      "inputs": [],
      "name": "vestingInterval",
      "outputs": [
        {
          "internalType": "uint256",
          "name": "",
          "type": "uint256"
        }
      ],
      "stateMutability": "view",
      "type": "function"
    },
    {
      "inputs": [
        {
          "internalType": "address",
          "name": "",
          "type": "address"
        }
      ],
      "name": "vestingSchedules",
      "outputs": [
        {
          "internalType": "uint256",
          "name": "totalAmount",
          "type": "uint256"
        },
        {
          "internalType": "uint256",
          "name": "claimedAmount",
          "type": "uint256"
        },
        {
          "internalType": "uint256",
          "name": "lockEndTime",
          "type": "uint256"
        },
        {
          "internalType": "uint256",
          "name": "unlockPerBatch",
          "type": "uint256"
        }
      ],
      "stateMutability": "view",
      "type": "function"
    },
    {
      "inputs": [],
      "name": "withdrawBNB",
      "outputs": [],
      "stateMutability": "nonpayable",
      "type": "function"
    }
  ],
  "bytecode": "0x60806040523461078857612f0a6040813803918261001c816107ac565b9384928339810103126107885761003e6020610037836107d1565b92016107d1565b9061004960406107ac565b91601083526f21b430b4b729b83432b932aa37b5b2b760811b602084015261007160406107ac565b600381526204353560ec1b602082015283519092906001600160401b03811161069157600354600181811c9116801561077e575b602082101461067157601f8111610719575b50602094601f82116001146106b2579481929394956000926106a7575b50508160011b916000199060031b1c1916176003555b82516001600160401b03811161069157600454600181811c91168015610687575b602082101461067157601f811161060c575b506020601f82116001146105a5578192939460009261059a575b50508160011b916000199060031b1c1916176004555b33156105845760058054336001600160a01b0319821681179092556040519291906001600160a01b03167f8be0079c531659141344cd1fd0a4f28419497f9722a3daafe3b4186f6b6457e0600080a360016006556078600e55603c600f556001600160a01b03169081151580610572575b15610530575060018060a01b0319600754161760075560018060a01b031660018060a01b0319600854161760085560006002546b1128543ccb7ea8f17e000000810180911161051c576002555033600052600060205260406000206b1128543ccb7ea8f17e00000081540190556040516b1128543ccb7ea8f17e000000815260007fddf252ad1be2c89b69c2b068fc378daa952ba7f163c4a11628f55a4df523b3ef60203393a361026d61078d565b6b01b73b9fadf310e4f3000000815266b1a2bc2ec5000060208083019182526303c26700604084019081526001600052601290915291517f71a67924699a20698523213e55fe499d539379d7769cd5567e2c45d583f815a355517f71a67924699a20698523213e55fe499d539379d7769cd5567e2c45d583f815a455517f71a67924699a20698523213e55fe499d539379d7769cd5567e2c45d583f815a55561031461078d565b6b01b73b9fadf310e4f3000000815266f8b0a10e47000060208083019182526303c26700604084019081526002600052601290915291517f8e1fee8c88a9e04123b21e90cae2727a7715bf522a1e46eb5934ccd05203a6b255517f8e1fee8c88a9e04123b21e90cae2727a7715bf522a1e46eb5934ccd05203a6b355517f8e1fee8c88a9e04123b21e90cae2727a7715bf522a1e46eb5934ccd05203a6b4556103bb61078d565b6b01b73b9fadf310e4f3000000815267013fbe85edc9000060208083019182526303c26700604084019081526003600052601290915291517f0f36ad39aee03e7108cc48f54934702a5f0d4066f10344cebf8198978d86976a55517f0f36ad39aee03e7108cc48f54934702a5f0d4066f10344cebf8198978d86976b55517f0f36ad39aee03e7108cc48f54934702a5f0d4066f10344cebf8198978d86976c5561046361078d565b6adb9dcfd6f988727980000081526701aa535d3d0c000060208083019182526303c2670060408085019182526004600052601290925292517fb4fcd034df3d20faa1c133b66d862ce92732727d40916b48ffb4020cb00fe0535590517fb4fcd034df3d20faa1c133b66d862ce92732727d40916b48ffb4020cb00fe0545590517fb4fcd034df3d20faa1c133b66d862ce92732727d40916b48ffb4020cb00fe055556011805460ff191690555161272490816107e68239f35b634e487b7160e01b82526011600452602482fd5b62461bcd60e51b815260206004820152601660248201527f496e76616c6964205553445420616464726573736573000000000000000000006044820152606490fd5b506001600160a01b03831615156101be565b631e4fbdf760e01b600052600060045260246000fd5b015190503880610137565b601f198216906004600052806000209160005b8181106105f4575095836001959697106105db575b505050811b0160045561014d565b015160001960f88460031b161c191690553880806105cd565b9192602060018192868b0151815501940192016105b8565b60046000527f8a35acfbc15ff81a39ae7d344fd709f28e8600b4aa8c65c6b64bfe7fe36bd19b601f830160051c81019160208410610667575b601f0160051c01905b81811061065b575061011d565b6000815560010161064e565b9091508190610645565b634e487b7160e01b600052602260045260246000fd5b90607f169061010b565b634e487b7160e01b600052604160045260246000fd5b0151905038806100d4565b601f198216956003600052806000209160005b888110610701575083600195969798106106e8575b505050811b016003556100ea565b015160001960f88460031b161c191690553880806106da565b919260206001819286850151815501940192016106c5565b60036000527fc2575a0e9e593c00f959f8c92f12db2869c3395a3b0502d05e2516446f71f85b601f830160051c81019160208410610774575b601f0160051c01905b81811061076857506100b7565b6000815560010161075b565b9091508190610752565b90607f16906100a5565b600080fd5b60405190606082016001600160401b0381118382101761069157604052565b6040519190601f01601f191682016001600160401b0381118382101761069157604052565b51906001600160a01b03821682036107885756fe608080604052600436101561001357600080fd5b60003560e01c9081630455444314611e6a575080630563451a14611e4c57806306fdde0314611d8d578063095ea7b314611cdb57806318160ddd14611cbd5780631d111d1314611c3a5780631f803ac314611c1757806323b872dd14611b6b5780632b3935a614611b19578063313ce56714611afd578063388727bc14611abb5780633b7104f214611a9f5780633e0a322d14611a3257806342966c6814611a1557806348c54b9d146118f857806348dec2a7146118b557806357ea89b61461172e5780635ed9ebfc1461171057806368819f7a146116be5780636b2d95d41461169b57806370a0823114611678578063715018a61461161b578063762687cf146115f757806379cc6790146115c757806379fbe635146114875780637ad59431146112875780637ff9b59614611269578063827037db1461124b5780638da5cb5b146112225780638e58e76e146111d057806395d89b41146110c8578063a0821be31461109d578063a0ce943314611057578063a9059cbb14610fac578063ae3218bc14610f2b578063b8e50cab14610f0d578063ba91778f14610d57578063bfdc33a814610c59578063ccb98ffc14610bdf578063cd94b54b14610bbc578063cf26d53614610b93578063dd62ed3e14610b42578063e4f2487a14610b1a578063e74f3fbb146109d5578063ed65af74146109ac578063ee6d12a61461090f578063f2fde38b14610885578063f5e34ac01461029b5763fdb20ccb1461023a57600080fd5b34610296576020366003190112610296576001600160a01b0361025b611ece565b166000526010602052608060406000208054906001810154906003600282015491015491604051938452602084015260408301526060820152f35b600080fd5b60603660031901126102965760443560043560243560028310156102965760095442101580610879575b15610840576102d2612501565b60ff601154166007811015806104c5578115159081610832575b81610821575b50156107e55761030190611f19565b926103106002850154426121f3565b913415918261066057508361061b5780156105e257670de0b6b3a7640000340291348304670de0b6b3a76400001417156105cc5761034d91611fed565b925b83156105875783815410610542576005548490610374906001600160a01b031661224e565b106104f1573360005260136020526103be604060002060ff60115416906103b3604051926103a184611fa2565b8884524260208501526040840161229b565b8460608301526123cd565b6103cc60ff60115416611f32565b8054600160401b8110156104db576103e991600182018155611f4b565b81549060031b9033821b9160018060a01b03901b191617905561040e84600c546121f3565b600c5561041c848254611fe0565b905560055461043790849033906001600160a01b03166125ce565b60ff601154169160078310156104c5577f884543c08d36fb5c9b3b688dd0453c9f287199124bdbddb3b7f9ca885a4d34a09233600052601560205260406000205533600052601560205260016040600020016104948582546121f3565b905580156104bd57925b6040805194855260208501919091528301523391606090a26001600655005b50349261049e565b634e487b7160e01b600052602160045260246000fd5b634e487b7160e01b600052604160045260246000fd5b60405162461bcd60e51b8152602060048201526024808201527f4e6f7420656e6f75676820746f6b656e7320696e206f776e657227732062616c604482015263616e636560e01b6064820152608490fd5b60405162461bcd60e51b815260206004820152601d60248201527f496e73756666696369656e7420616c6c6f636174656420746f6b656e730000006044820152606490fd5b60405162461bcd60e51b815260206004820152601860248201527f546f6b656e20616d6f756e74206d757374206265203e203000000000000000006044820152606490fd5b634e487b7160e01b600052601160045260246000fd5b60405162461bcd60e51b8152602060048201526011602482015270496e76616c696420424e4220707269636560781b6044820152606490fd5b60405162461bcd60e51b815260206004820152601d60248201527f43616e6e6f742073656e6420626f746820424e4220616e6420555344540000006044820152606490fd5b9491505082156107a057670de0b6b3a76400008302838104670de0b6b3a7640000036105cc57600182015461069491611fed565b93806106fa57506007546001600160a01b031680156106c057836106bb913090339061267d565b61034f565b60405162461bcd60e51b8152602060048201526012602482015271115490cc8c081554d115081b9bdd081cd95d60721b6044820152606490fd5b60010361075b576008546001600160a01b0316801561072157836106bb913090339061267d565b60405162461bcd60e51b81526020600482015260126024820152711091540c8c081554d115081b9bdd081cd95d60721b6044820152606490fd5b60405162461bcd60e51b815260206004820152601a60248201527f556e737570706f7274656420746f6b656e207374616e646172640000000000006044820152606490fd5b60405162461bcd60e51b815260206004820152601760248201527f5553445420616d6f756e74206d757374206265203e20300000000000000000006044820152606490fd5b60405162461bcd60e51b81526020600482015260146024820152734e6f206163746976652073616c6520706861736560601b6044820152606490fd5b90506104c5576006811415856102f2565b5050600581141560006102ec565b60405162461bcd60e51b815260206004820152601160248201527049434f206973206e6f742061637469766560781b6044820152606490fd5b50600a544211156102c5565b346102965760203660031901126102965761089e611ece565b6108a6612441565b6001600160a01b031680156108f957600580546001600160a01b0319811683179091556001600160a01b03167f8be0079c531659141344cd1fd0a4f28419497f9722a3daafe3b4186f6b6457e0600080a3005b631e4fbdf760e01b600052600060045260246000fd5b3461029657600036600319011261029657610928612441565b6007546040516370a0823160e01b815230600482015290602090829060249082906001600160a01b03165afa80156109a05760009061096d575b602090604051908152f35b506020813d602011610998575b8161098760209383611fbe565b810103126102965760209051610962565b3d915061097a565b6040513d6000823e3d90fd5b34610296576000366003190112610296576007546040516001600160a01b039091168152602090f35b34610296576000366003190112610296576109ee612501565b3360005260106020526040600020805415610ad55760028101544210610a9057610a1733612020565b8015610a3f576001610a389201610a2f8282546121f3565b905533306125ce565b6001600655005b60405162461bcd60e51b815260206004820152602360248201527f4e6f2076657374656420746f6b656e7320617661696c61626c6520746f20636c60448201526261696d60e81b6064820152608490fd5b60405162461bcd60e51b815260206004820152601b60248201527f4c6f636b20706572696f64206973207374696c6c2061637469766500000000006044820152606490fd5b60405162461bcd60e51b815260206004820152601f60248201527f4e6f20746f6b656e7320616c6c6f636174656420666f722076657374696e67006044820152606490fd5b3461029657600036600319011261029657602060ff60115416610b406040518092611f95565bf35b3461029657604036600319011261029657610b5b611ece565b610b63611ee4565b6001600160a01b039182166000908152600160209081526040808320949093168252928352819020549051908152f35b34610296576000366003190112610296576008546040516001600160a01b039091168152602090f35b3461029657600036600319011261029657602060ff600b54166040519015158152f35b3461029657602036600319011261029657600435610bfb612441565b600954811115610c0a57600a55005b60405162461bcd60e51b815260206004820152602160248201527f456e642074696d65206d7573742062652061667465722073746172742074696d6044820152606560f81b6064820152608490fd5b3461029657604036600319011261029657610c72611ece565b60243590610c7e612441565b6005546001600160a01b031682610c948261224e565b10610d1e5782610ca59130906125ce565b610cb1600e54426121f3565b6014830290838204601414841517156105cc5760039260405194610cd486611fa2565b8552602085019060008252604086019283526064606087019404845260018060a01b0316600052601060205260406000209451855551600185015551600284015551910155600080f35b60405162461bcd60e51b81526020600482015260116024820152704e6f7420656e6f75676820746f6b656e7360781b6044820152606490fd5b3461029657606036600319011261029657610d70611ece565b602435604435610d7e612441565b6001600160a01b0383168015610ec8578215610e8c578115610e47576005548390610db1906001600160a01b031661224e565b10610e0357610dc483610e0195336125ce565b6000526013602052610ddb604060002091426121f3565b60405192610de884611fa2565b83524260208401526006604084015260608301526123cd565b005b606460405162461bcd60e51b815260206004820152602060248201527f6f776e657220646f65736e2774206861766520656e6f75676820746f6b656e736044820152fd5b60405162461bcd60e51b815260206004820152601a60248201527f6c6f636b2074696d652073686f756c6420696e206675747572650000000000006044820152606490fd5b60405162461bcd60e51b81526020600482015260146024820152730616d6f756e742073686f756c64206265203e20360641b6044820152606490fd5b60405162461bcd60e51b815260206004820152601e60248201527f726563697069656e742061646472657373206973206e6f742076616c696400006044820152606490fd5b34610296576000366003190112610296576020600f54604051908152f35b3461029657604036600319011261029657610f44611ece565b6001600160a01b031660009081526013602052604090208054602435919082101561029657608091610f7591611f79565b50805490610fa5600182015491600360ff6002830154169101549260405194855260208501526040840190611f95565b6060820152f35b3461029657604036600319011261029657610fc5611ece565b60243580610fd2336122bb565b10610fec57610fe191336125ce565b602060405160018152f35b60405162461bcd60e51b815260206004820152603e60248201527f496e73756666696369656e7420756e6c6f636b65642062616c616e636520626560448201527f636175736520796f752068617665206e6f7420636c61696d65642079657400006064820152608490fd5b346102965761106f61106836611efa565b9190611f32565b80548210156102965760209161108491611f4b565b905460405160039290921b1c6001600160a01b03168152f35b346102965760203660031901126102965760206110c06110bb611ece565b6122bb565b604051908152f35b346102965760003660031901126102965760405160006004548060011c906001811680156111c6575b6020831081146111b25782855290811561118e575060011461112e575b61112a8361111e81850382611fbe565b60405191829182611e85565b0390f35b91905060046000527f8a35acfbc15ff81a39ae7d344fd709f28e8600b4aa8c65c6b64bfe7fe36bd19b916000905b8082106111745750909150810160200161111e61110e565b91926001816020925483858801015201910190929161115c565b60ff191660208086019190915291151560051b8401909101915061111e905061110e565b634e487b7160e01b84526022600452602484fd5b91607f16916110f1565b34610296576020366003190112610296576004356007811015610296576111f690611f19565b805461112a60026001840154930154604051938493846040919493926060820195825260208201520152565b34610296576000366003190112610296576005546040516001600160a01b039091168152602090f35b34610296576000366003190112610296576020600954604051908152f35b34610296576000366003190112610296576020600d54604051908152f35b3461029657602036600319011261029657600435600781108015610296576112ad612441565b60ff600b54166114325760018214600081611406575b81156113dc575b81156113ad575b811561137e575b8115611350575b501561130b57156104c55761130460019160ff196011541660ff821617601155611f19565b0154600d55005b60405162461bcd60e51b815260206004820152601e60248201527f496e76616c69642073616c65207068617365207472616e736974696f6e2100006044820152606490fd5b90506104c5576006821480611366575b836112df565b5060ff6011541660078110156104c557600414611360565b8091506104c5576004831480611395575b906112d8565b5060ff6011541660078110156104c55760031461138f565b8091506104c55760038314806113c4575b906112d1565b5060ff6011541660078110156104c5576002146113be565b905060028314806113ee575b906112ca565b5060ff6011541660078110156104c5576001146113e8565b905060ff60115416600781101561141e5715906112c3565b634e487b7160e01b82526021600452602482fd5b60405162461bcd60e51b815260206004820152602760248201527f43616e6e6f74206368616e6765207068617365207768696c652049434f206973604482015266081c185d5cd95960ca1b6064820152608490fd5b346102965761149536611efa565b61149d612441565b6114a682611f19565b541561158d578060026114b884611f19565b01556114c382611f32565b6000915b8154831015610e01576114da8383611f4b565b60018060a01b0391549060031b1c16600052601360205260406000209160005b835481101561157f5761150d8185611f79565b5054151580611551575b90600191611526575b016114fa565b61153d84836115358489611f79565b5001546121f3565b60036115498388611f79565b500155611520565b5060ff60026115608387611f79565b500154169060078710156104c55760078210156104c557908614611517565b5060019093019291506114c7565b60405162461bcd60e51b8152602060048201526012602482015271496e76616c69642073616c6520706861736560701b6044820152606490fd5b3461029657604036600319011261029657610e016115e3611ece565b602435906115f2823383612523565b61246a565b3461029657600036600319011261029657611610612441565b602047604051908152f35b3461029657600036600319011261029657611634612441565b600580546001600160a01b031981169091556000906001600160a01b03167f8be0079c531659141344cd1fd0a4f28419497f9722a3daafe3b4186f6b6457e08280a3005b346102965760203660031901126102965760206110c0611696611ece565b61224e565b346102965760203660031901126102965760206110c06116b9611ece565b612200565b34610296576020366003190112610296576116d7611ece565b6116df612441565b6001600160a01b03166116f3811515612094565b6bffffffffffffffffffffffff60a01b6008541617600855600080f35b34610296576000366003190112610296576020600c54604051908152f35b3461029657600036600319011261029657611747612441565b6007546040516370a0823160e01b81523060048201526001600160a01b0390911690602081602481855afa9081156109a057600091611883575b50801561184857602090604460018060a01b03600554166000604051958694859363a9059cbb60e01b8552600485015260248401525af19081156109a057600091611806575b50156117cf57005b60405162461bcd60e51b815260206004820152600f60248201526e1dda5d1a191c985dc819985a5b1959608a1b6044820152606490fd5b6020813d602011611840575b8161181f60209383611fbe565b8101031261183c57519081151582036118395750816117c7565b80fd5b5080fd5b3d9150611812565b60405162461bcd60e51b81526020600482015260136024820152724e6f207573647420746f20776974686472617760681b6044820152606490fd5b906020823d6020116118ad575b8161189d60209383611fbe565b8101031261183957505182611781565b3d9150611890565b34610296576020366003190112610296576001600160a01b036118d6611ece565b1660005260156020526040806000206001815491015482519182526020820152f35b3461029657600036600319011261029657611911612501565b336000526013602052604060002060009060005b8154811015611996576119388183611f79565b505415158061197e575b61194f575b600101611925565b916119686001916119608585611f79565b5054906121f3565b9260006119758285611f79565b50559050611947565b50600361198b8284611f79565b500154421015611942565b8280156119d0576040519081527f896e034966eaaf1adc54acc0f257056febbd300c9e47182cf761982cf1f5e43060203392a26001600655005b60405162461bcd60e51b815260206004820152601b60248201527f4e6f20756e6c6f636b656420746f6b656e7320746f20636c61696d00000000006044820152606490fd5b3461029657602036600319011261029657610e016004353361246a565b3461029657602036600319011261029657600435611a4e612441565b42811115611a5b57600955005b606460405162461bcd60e51b815260206004820152602060248201527f53746172742074696d65206d75737420626520696e20746865206675747572656044820152fd5b346102965760003660031901126102965761112a61111e6120d2565b3461029657600036600319011261029657611ad4612441565b600b5460ff8082161516809160ff191617600b55611aee57005b6011805460ff19166005179055005b3461029657600036600319011261029657602060405160128152f35b3461029657602036600319011261029657611b32611ece565b611b3a612441565b6001600160a01b0316611b4e811515612094565b6bffffffffffffffffffffffff60a01b6007541617600755600080f35b3461029657606036600319011261029657611b84611ece565b611b8c611ee4565b6044359081611b9a846122bb565b10611bb357610fe192611bae833383612523565b6125ce565b60405162461bcd60e51b815260206004820152603660248201527f596f7520746f6b656e7320617265207374696c6c206c6f636b6564206f7220796044820152751bdd481a185d995b89dd0818db185a5b5959081e595d60521b6064820152608490fd5b346102965760203660031901126102965760206110c0611c35611ece565b612020565b3461029657600036600319011261029657611c53612441565b478015611c78576005546000918291829182916001600160a01b031682f1156109a057005b60405162461bcd60e51b815260206004820152601c60248201527f4e6f20424e4220617661696c61626c6520696e20636f6e7472616374000000006044820152606490fd5b34610296576000366003190112610296576020600254604051908152f35b3461029657604036600319011261029657611cf4611ece565b602435903315611d77576001600160a01b0316908115611d6157336000526001602052604060002082600052602052806040600020556040519081527f8c5be1e5ebec7d5bd14f71427d1e84f3dd0314c0f7b2291e5b200ac8c7c3b92560203392a3602060405160018152f35b634a1406b160e11b600052600060045260246000fd5b63e602df0560e01b600052600060045260246000fd5b346102965760003660031901126102965760405160006003548060011c90600181168015611e42575b6020831081146111b25782855290811561118e5750600114611de25761112a8361111e81850382611fbe565b91905060036000527fc2575a0e9e593c00f959f8c92f12db2869c3395a3b0502d05e2516446f71f85b916000905b808210611e285750909150810160200161111e61110e565b919260018160209254838588010152019101909291611e10565b91607f1691611db6565b34610296576000366003190112610296576020600a54604051908152f35b3461029657600036600319011261029657602090600e548152f35b91909160208152825180602083015260005b818110611eb8575060409293506000838284010152601f8019910116010190565b8060208092870101516040828601015201611e97565b600435906001600160a01b038216820361029657565b602435906001600160a01b038216820361029657565b6040906003190112610296576004356007811015610296579060243590565b60078110156104c5576000526012602052604060002090565b60078110156104c5576000526014602052604060002090565b8054821015611f635760005260206000200190600090565b634e487b7160e01b600052603260045260246000fd5b8054821015611f635760005260206000209060021b0190600090565b9060078210156104c55752565b6080810190811067ffffffffffffffff8211176104db57604052565b90601f8019910116810190811067ffffffffffffffff8211176104db57604052565b919082039182116105cc57565b8115611ff7570490565b634e487b7160e01b600052601260045260246000fd5b818102929181159184041417156105cc57565b6001600160a01b0316600090815260106020526040902060028101549042821161208d5761206b6120606120576120819442611fe0565b600f5490611fed565b60038301549061200d565b908054808311612084575b506001015490611fe0565b90565b91506001612076565b5050600090565b1561209b57565b60405162461bcd60e51b815260206004820152600f60248201526e496e76616c6964206164647265737360881b6044820152606490fd5b60ff600b54166121b857600954801580156121ae575b61219f5742101580612193575b61216857600a54421161213d57604051612110604082611fbe565b601781527f49434f20686173206e6f74207374617274656420796574000000000000000000602082015290565b60405161214b604082611fbe565b600d81526c1250d3c81a185cc8195b991959609a1b602082015290565b604051612176604082611fbe565b600d81526c49434f2069732061637469766560981b602082015290565b50600a544211156120f5565b50604051612110604082611fbe565b50600a54156120e8565b6040516121c6604082611fbe565b601f81527f49434f206973206d616e75616c6c7920706175736564206279206f776e657200602082015290565b919082018092116105cc57565b6001600160a01b03166000908152601060205260409020600281015442811161224957906122376120606120576120819442611fe0565b905480821115611fe057905080611fe0565b505490565b6001600160a01b03166000908152602081815260408083205460109092528220805461208193929181612283575b50506121f3565b6122939293506001015490611fe0565b90388061227c565b60078210156104c55752565b8051821015611f635760209160051b010190565b6001600160a01b0381166000908152601360205260408120805490939067ffffffffffffffff81116123b957604051946122fb60208360051b0187611fbe565b81865283526020808420849187015b83831061236e5750505050815b845181101561235a5761232a81866122a7565b5151612339575b600101612317565b9161235260019161234a85886122a7565b5151906121f3565b929050612331565b5092506123696120819261224e565b611fe0565b6004602060019260405161238181611fa2565b8554815284860154838201526123a160ff6002880154166040830161229b565b6003860154606082015281520192019201919061230a565b634e487b7160e01b83526041600452602483fd5b8054600160401b8110156104db576123ea91600182018155611f79565b91909161242b5780518255602081015160018301556040810151600283019160078210156104c55760039260609260ff801983541691161790550151910155565b634e487b7160e01b600052600060045260246000fd5b6005546001600160a01b0316330361245557565b63118cdaa760e01b6000523360045260246000fd5b6001600160a01b031680156124eb576000918183528260205260408320548181106124d257817fddf252ad1be2c89b69c2b068fc378daa952ba7f163c4a11628f55a4df523b3ef926020928587528684520360408620558060025403600255604051908152a3565b6064939263391434e360e21b8452600452602452604452fd5b634b637e8f60e11b600052600060045260246000fd5b600260065414612512576002600655565b633ee5aeb560e01b60005260046000fd5b6001600160a01b03908116600081815260016020908152604080832094861683529390529190912054929190600019841061255f575b50505050565b8284106125a9578015611d77576001600160a01b03821615611d6157600052600160205260406000209060018060a01b031660005260205260406000209103905538808080612559565b508290637dc7a0d960e11b60005260018060a01b031660045260245260445260646000fd5b6001600160a01b03169081156124eb576001600160a01b031691821561266757600082815280602052604081205482811061264d5791604082827fddf252ad1be2c89b69c2b068fc378daa952ba7f163c4a11628f55a4df523b3ef958760209652828652038282205586815280845220818154019055604051908152a3565b916064928463391434e360e21b8452600452602452604452fd5b63ec442f0560e01b600052600060045260246000fd5b6040516323b872dd60e01b60208083019182526001600160a01b03948516602484015294909316604482015260648082019590955293845292600091906126c5608482611fbe565b519082855af1156109a0576000513d61270e57506001600160a01b0381163b155b6126ed5750565b635274afe760e01b60009081526001600160a01b0391909116600452602490fd5b600114156126e656fea164736f6c634300081c000a",
  "linkReferences": {},
  "deployedLinkReferences": {}
}